:020000040800F2
:10000000480D0020115400080D5300080F5300083C
:100010001153000813530008155300080000000096
:10002000000000000000000000000000175300085E
:1000300019530008000000001B5300081D5300085E
:100040003B5400083F54000843540008475400083C
:100050004B5400084F5400085354000857540008EC
:100060005B5400085F54000863540008675400089C
:100070006B5400086F54000873540008775400084C
:100080007B5400087F5400088354000887540008FC
:10009000215300088B5400088F5400089354000823
:1000A000975400089B5400089F540008A35400086C
:1000B000A7540008AB540008AF540008B35400081C
:1000C000B7540008BB540008BF540008C3540008CC
:1000D000C754000827530008CB540008CF54000829
:1000E000D3540008D7540008DB540008DF5400083C
:1000F000E3540008E7540008EB540008EF540008EC
:10010000F3540008F7540008FB540008FF5400089B
:1001100003550008075500080B5500080F55000847
:1001200013550008175500081B5500081F550008F7
:1001300023550008275500082B5500082F550008A7
:100140002D53000833550008375500083B5500086B
:100150003F55000843550008475500084B55000817
:100160004F55000853550008575500085B550008C7
:100170005F5500086355000867550008000000003F
:100180006B5500086F5500082DE9F04F0FF2A41CC5
:10019000A1B0DCE90089CDE900892A9DDFF8109C37
:1001A000049100248DF843500D944FF0FF3882469F
:1001B00016461F460FE0B3462C461BF8011B049859
:1001C000D0470028049000F0A2800D98401C641EC7
:1001D0000D90F2D176193078252808D1002100221F
:1001E0000791089209910A920B910C920DE06A46D0
:1001F0004146304600F0F4FF050001D10D98A1E022
:10020000D9D50125E6E741F0010116F8010F2028B4
:10021000F9D023280CD02B2804D02D2805D0302845
:1002200009D076E041F00201EFE741F00401ECE78C
:1002300041F00801E9E741F01001E6E70F9209E01B
:100240000F98484505DA00EB800402EB4402303A8F
:100250000F92761C3278A2F130000A28F0D3307861
:100260002E2818BFCDF8388022D116F8010F2A2881
:1002700007D138683860761C50F8042B38600E922D
:1002800016E02D280CBF761C002000220E920AE0FA
:1002900040B90E9A4A4505DA02EB820403EB4403A7
:1002A000303B0E93761C3378A3F130020A2AEFD349
:1002B000ADF8401021A0317800F09CFF08B116F88D
:1002C000010B8DF842009DF84200682804D1307877
:1002D00068280AD1622105E06C2804BF30786C28B8
:1002E00003D171218DF84210761C12A806903A466F
:1002F00016F8013B02A9504600F064F838B912AA7A
:1003000002A9504600F0CAF900287FF564AF4046C4
:1003100018E02A2892D13A683A6052F8040B3A6001
:1003200000280F9003D540420F9041F00401761C45
:1003300095E700000000000000000000686A6C748F
:100340007A4C000021B0BDE8F08F622820D06828E8
:1003500011D06A2803D06C2827D0712825D10868CD
:10036000C01D20F007000860D0E9002308300860B5
:10037000194610467047002A0A680A60106803D0C0
:10038000121D0A6000B217E0121D0A6080B217E069
:10039000002A0A680A60106803D0121D0A6040B281
:1003A0000AE0121D0A60C0B20AE0002A0A680A6068
:1003B000106803D0121D0A60C1177047121D0A6031
:1003C000002170477CB50D4611461C462E69B4F1DC
:1003D000250200F051811C3A00F08680121F022A8B
:1003E00040F282800E3A00F00B81521F5AD0093A37
:1003F0007AD0921E16D0521E35D0521E022A73D9C0
:10040000121F30D0521F00F09A80521E4AD0521E46
:1004100000F0E480D21E00F00181921E42D0D21E74
:1004200040D02FE195F83A406C2C09D06869421C05
:100430006A610A680A6052F8043B0A6033542BE18F
:100440000A680A6052F8043B0A6000930022019295
:100450004FF0FF332B636A46294600F09AF90028D3
:1004600040F11A8105E195F83A000122FFF76DFF8E
:10047000C5E900010023994204DA6869411C6961F9
:100480002D220DE0288F810704D56869411C696120
:100490002B2205E0C00722D56869411C6961202232
:1004A00032541CE095F83A000022FFF74EFFC5E9F0
:1004B000000195F83800010711D5D5E90023002087
:1004C000834208BF82420AD044F02000782806D137
:1004D000686930213154401C421C6A613454214601
:1004E00068693044E86087E00868C01D20F00700B4
:1004F0000860D0E9002308300860C5E90023D5E989
:100500000001C80F04D06869411C69612D220DE00B
:10051000288F810704D56869411C69612B2205E099
:10052000C00704D56869411C69612022325468699A
:100530003044E8602146284600F03AFAACE005F184
:100540003A02507820B14FF0FF340FF6343074E0A7
:100550001078622808D0682824D06A2812D06C2825
:100560002ED071280ED02BE00A680A6052F8040BD6
:100570000A6020B94FF0FF340FF61C305DE0E96AE5
:10058000017089E00A680A6052F8040B0A6020B919
:100590004FF0FF340FF600304FE0EA6AD317C0E99E
:1005A000002379E00A680A6052F8040B0A6020B957
:1005B0004FF0FF340FF6E0203FE0E96A01806BE086
:1005C0000A680A6052F8040B0A6020B94FF0FF3441
:1005D0000FF6C42031E0E96A01605DE00A680A6054
:1005E00052F8040B0A60002120F0000221F0FF33D2
:1005F000C5E90023EE607821284600F02DF94BE094
:100600006C2285F83A200B680B6053F8042B0B60C2
:1006100052BB4FF0FF340FF6B4200EE095F83A20AD
:100620006C2AF0D00868086050F8044B0860EC6051
:100630003CB94FF0FF340FF6782000F003FE201A8B
:1006400076BD2E6B002E04D5204600F01BFE04461E
:1006500008E032460021204600F03EFE002814BF8C
:10066000041B3446AC6117E0294600F092F80028DC
:1006700012D54FF0FF3076BD6869411C69612522B3
:10068000325409E06969481C6861252272542100CE
:1006900002D0431C6B613454002076BD2DE9F0413B
:1006A0000E4605469046726B7069316AB46A121A3A
:1006B000B069521A716A121AF069521A121A96F82F
:1006C0003800141B41070DD4002C0BDD2746B06801
:1006D0002021A8470028B06057D0F06A401C7F1E38
:1006E000F062F4D1736942463146284600F0B0FC0E
:1006F00000284AD1376A002F0ADDB0683021A847A8
:100700000028B06041D0F06A401C7F1EF062F4D136
:10071000B369F2683146284600F09AFCA8BB776AB4
:10072000002F09DDB0683021A847B06068B3F06AD7
:10073000401C7F1EF062F5D1F068B169F369421880
:100740003146284600F084FCF8B9B76A002F09DD6D
:10075000B0683021A847B060B8B1F06A401C7F1E75
:10076000F062F5D196F8380041070BD5002C09DD71
:10077000B0682021A847B06038B1F06A401C641E00
:10078000F062F5D10020BDE8F0814FF0FF30BDE808
:10079000F0812DE9F8470D46A3B02F6B002F0646D8
:1007A000904648BF6FF000470FF63C1400F0C0FDC4
:1007B000D4E90023696B4018CDE90123812828BFC3
:1007C0004FF0FF3042D20024002F33DDD8F8001064
:1007D00001AA684600F006FD8146B9F1000F38D441
:1007E000D8F8000010B9B9F1010932D44F4521DB26
:1007F0006869484481280AD30021696303AA29460D
:100800003046FFF74BFF040014D40020686103ABAF
:10081000D5F814A04A46694603EB0A0000F092FDA1
:10082000CA44C5F814A058F8040B002818BFA7EB59
:100830000907C9D14CB903AA29463046FFF72EFF54
:10084000044614B9002068616863204624B0BDE8FE
:10085000F0874FF0FF34F8E72DE9FC4707468C4658
:100860003E69BCF16F0F08BF082405D04CF0200092
:10087000782814BF0A2410243C25D7E90023BCF1B2
:10088000640F18BFBCF1690F9046994606D100214C
:100890008B4203DAD8F1000869EB49094FF0000AEE
:1008A000D14508BFD0451FD1386BE8B9082C4BD1D2
:1008B00097F83800010747D530203B2586F83B00E4
:1008C00042E000280ED597F8380000F014001028F8
:1008D00008D17B6B7969386A5B1A1B1A9A1A002A4D
:1008E000C8BF3A62BDE8F3878DF800C0404649466C
:1008F0002246E31700F07AFD3032D0B26D1E3A285E
:10090000019504DB9DF80000A0F151018A18725591
:10091000404649462246E31700F068FD8946804676
:10092000D14508BFD04503D0F86871198842DDD39E
:10093000082C09D197F83800010705D5705D3028DB
:1009400002D06D1E30207055C5F13C02BA6171199C
:10095000F960386B8242B4DA821A3A624FF6EF706D
:10096000398F01403987BDE8F3872DE9D04306462A
:100970000F4614464FF00008DFF8389412E0E00705
:1009800007D542464B463046394600F047FE0646FC
:100990000F464046494642464B4600F03FFE641033
:1009A00080468946002CEAD130463946BDE8D083DE
:1009B0002DE9F34F054641F020048DB0D5E90089BB
:1009C000612C02AE09D0286B002848BF062003D452
:1009D00008BF672C01D101202863D5E90023580006
:1009E0004015401C0ED119030CD00320A8619DF8BE
:1009F000381061391A2902D20FF2F46111E00FF2B6
:100A0000F4610EE059004915491C0FD118030DD1AE
:100A10000320A8619DF8381061391A2914D30FF208
:100A2000DC61E868032200F08DFCD3E1194621F077
:100A30000043B3F5801F10460DD20027BB4208BF0C
:100A4000BA42019703D111E00FF2AC61E9E701AAC4
:100A500000F0B6FE0AE0DFF8607307EB1352DFF830
:100A60005C3301921940DFF858331943C5E900019E
:100A7000612C0ED1E86830210170821CEA609DF87B
:100A8000381061290CBF7821582141706869801C99
:100A90006861D5E900AB2BF0004300202AF000028A
:100AA000834204BF8242002300F05B81612C40F04E
:100AB000AA80286B002847BF21210091401C00908C
:100AC000009F7F1C404649460022002300F0B0FEF4
:100AD000D94601998DF8082038BF89F00049091FCF
:100AE000002FD04601910DF1090040F34981B3492F
:100AF000DFF8D0B20C91064640464946002200235A
:100B000000F0AEFE80F03B814800400D00F11C0279
:100B100011D0002A0FDD40F2FF70824205DB09F0A0
:100B2000004040EA0B01002013E00C98014041EA2C
:100B3000025140460DE029F00043002028F0000259
:100B4000834208BF82420FBF40461C22404600F04D
:100B50009FFE8046894600F039FFFF1F002F0446A4
:100B600009DD00F051FF02460B464046494600F0C1
:100B70005DFF80468946F01D072104E004F00F0266
:100B800000F8012D2411002C01DD491EF6D5491E67
:100B90005CBF002200F8012DF9D5ECE000201946D9
:100BA00002AA0A4400E05B1E12F80149491E844271
:100BB000F9D00F2804D10DF10900425C521C4254B7
:100BC000002904D50198001D02AE5B1C0190591E3E
:100BD00012D49DF838007218A0F13A07147804F185
:100BE00030085FFA88F43A2CA8BFB844491E02F8CE
:100BF0000189F3D58DF83800286B002840F1B080CA
:100C0000591E2963ACE0404649460022002300F00B
:100C10000FFE019938BF89F0004947F297504143D0
:100C2000694A91FBF2F20192D2F1070204DD4046DB
:100C30004946FFF79AFE0AE0524200206349FFF757
:100C400094FE02460B464046494600F061FF80464E
:100C5000662C286BDFF878B106BF019F0A3706279C
:100C60003F18142FC8BF142730208DF8080089467C
:100C70000DF1090000E03046002F34DD0646404605
:100C8000494601F069F801460A4606F108030420C6
:100C90000A26B2FBF6F606EB860EA2EB4E023032C7
:100CA00003F8012C0A22B6FBF2F202EB820EA6EB4D
:100CB0004E063036401E03F8026DE9D1083F002F82
:100CC00003F10806D7DD084601F05AF802460B4644
:100CD0004046494600F0AAFE00225B4600F09EFC1A
:100CE00080468946CBE70DF10901401A0DF109064E
:100CF00004E00199491E401E0191761C317830298B
:100D0000F7D0662C02D10199491C03E0652C0CBF79
:100D1000012100212B6BCB189842B8BF431E002B3A
:100D20001ED4834204DAF05C3528A8BF392000DAEB
:100D300030201946721E02EB010800E05B1E18F815
:100D40000199491E8145F9D0392802D1705C401CB7
:100D50007054002904D50198401C16465B1C019074
:100D6000019800B200901BB29DF838103246284618
:100D700000F034F82EE0C61D002F3FF7BDAE304620
:100D80000DF10901401A009903468842C8BF0B467D
:100D9000002B0DF109063FF52FAF8342BFF6FEAEE3
:100DA0000DF10900C15C07297FF7F8AE0F20F6E6C8
:100DB000CBCCCC0C0000244002FCFFFFFFFF0F80D7
:100DC0000000E03F0000F07FA08601000000F03F3F
:100DD00084D797410FB0BDE8F08F00002DE9F847A8
:100DE00083B006468A461746984600F0FDF9B8F1EA
:100DF000000F406A356B90F8009002DC4FF001085C
:100E0000BFA74AF02000BDF93040662808BF641C27
:100E100015D0672840F0848014F1040FC0F286805A
:100E2000AC4280F2838096F83800641C010702D43B
:100E3000A845B8BF454620B22D1A48BF00250FFA75
:100E400084FAF068B169BAF1000F25DC4A1C30233E
:100E50004354002D03DC96F83800010703D5F068F1
:100E600000F80290521C15EB0A0FB8BF6C4220B27A
:100E7000441941424445B8BFA046B26171620FFABD
:100E800088F5F561F068B3692A463946184400F0E0
:100E900059FA641BB462C4E022B29045084417DAE0
:100EA0004246394600F04EFAB0694044B061AAEBC0
:100EB0000801002D716203DC96F838100A0705D589
:100EC000F16801F80090F069401CF061B562A8E09B
:100ED000394600F037FAB069002D5044A8EB0408F9
:100EE00003DC96F838100A0703D5F16801F8009082
:100EF000401CB0610FFA88F08542F368B069B8BF52
:100F0000A8460FFA88F207EB0A01184400F01AFA13
:100F1000B1690FFA88F00144B161281A706280E06B
:100F2000BAF1610F14D14FF0700A16E0A84504DA47
:100F300096F838100A0758BF45466D1E48BF002571
:100F4000BAF1670F14BF4FF0450A4FF0650A04E08D
:100F5000BAF1410F08BF4FF0500AB169F368481C5D
:100F6000B061002D17F8012B5A5403DC96F83810A5
:100F70000A071BD5F168431CB36101F80090002DEE
:100F800014DDA8F101080FFA88F039468542F768A8
:100F9000B8BFA8460FFA88F2F81800F0D3F9B06984
:100FA0000FFA88F108446D1AB0617562F068B16992
:100FB0000844002C80F800A003D42B224270811C2E
:100FC00003E02D2141706442811C00206A460AE042
:100FD00023460A2493FBF4F404EB8405A3EB4503B6
:100FE00002F8013B401C24B2002CF1DC012806DC95
:100FF0004AF02002652A04BF302201F8012B48B9CB
:10100000302001F8010B07E0401E1DF8003030339E
:1010100001F8013B0028F7DCF268B0691044091AB6
:10102000F16196F8380000F0140010280DD17269B3
:10103000B169706A8A18F1698218B06A8A188218D0
:10104000706B8242BCBF821A326204B0BDE8F08786
:10105000F8B505460E4617461C46002074B117F831
:10106000011BB068A847B06030B1F06A401CF06264
:101070000020641EF3D1F2BD4FF0FF30F2BD00003E
:101080007072696E74665F733A20256E20646973AE
:10109000616C6C6F776564007072696E74663A207B
:1010A00062616420256E20617267756D656E7400E3
:1010B0007072696E74665F733A2062616420257392
:1010C00020617267756D656E740000007072696EE4
:1010D00074665F733A2062616420256C73206172CC
:1010E00067756D656E740000000000000000000070
:1010F0006E616E004E414E00696E6600494E4600BC
:101100003000F0B40246106895681318506803EB7D
:101110005004C0071DD54D441BE013F8017B05F8B2
:10112000017B491EF9D1A0B1B60813F8011B06F0E6
:101130000306032E08BF13F8016B01EB0621494299
:10114000801C294405D011F8016B05F8016B401E85
:10115000F9D1A3420ED013F8016B16F0030104BFBE
:1011600013F8011BC91C30090F28DAD113F8010B41
:101170000F30D6E7F0BC02F10C0070471B487047F7
:1011800070B45368D418042B09DA41B1057804F817
:10119000015B10F8016B16B15B1C491EF3E753604D
:1011A00070BC704738B514461D4661B1FFF7E8FFC3
:1011B00061686A6B204690476FF00102811A02D085
:1011C000491E01D001E003E005E00021616032BD6D
:1011D0006FF0010032BD4FF0FF3032BDDA6B1047C7
:1011E000024BDFE7014BF9E701487047400500205B
:1011F000080500200278C9B28A421AB11CBF10F853
:10120000012FF9E718BF0020704730B4002513E024
:1012100050F8042BD30744BFA9F101039A18091F02
:10122000042942F8045BFAD213468C0744BF1580A8
:101230009B1CC90748BF1D7050F8041B0029E7D14B
:1012400030BC704780B500B906A005490B681BB1DA
:1012500022220021984701E000F09FFD222002BDDC
:1012600038070020636F6E73747261696E74206852
:10127000616E646C65723A20626164206D6573739F
:101280006167650000F10103810704D010F8011BBC
:10129000820781B1FAD10268A2F10131914311F0C4
:1012A000803104BF50F8042FF6E709BAB1FA81F192
:1012B00000EBD100401CC01A7047B1F5807F02D30B
:1012C0004FF0FF3070470170012070470078401EDA
:1012D0008041C043C00F7047C9B2830706D0521E79
:1012E00022D310F8013B9942F7D11FE0083A13D3FB
:1012F00002F1040241EA012141EA014150F8043BB4
:10130000121F21BF4B40A3F1013C2CEA030C1CF03F
:10131000803FF3D0C9B2001F083210F8013B521EC3
:1013200028BF91EA030FF8D818BF0120401E70476C
:1013300080B5FFF723FF006C02BD0268531C0360F9
:101340001170704762B38B0708D0521E11F8013B31
:1013500000F8013B00F024808B07F6D1830740F0B2
:10136000208000BF103A07D330B4B1E83810103AEB
:10137000A0E83810F9D230BC530724BFB1E80810F8
:10138000A0E8081044BF51F8043B40F8043BD207E2
:1013900024BF31F8022B20F8022B44BF0B780370D6
:1013A0007047121F17D35B0009D151F8043B20F896
:1013B000023B1B0C121F20F8023BF6D20BE051F847
:1013C000043B00F8013B1B0A20F8023B1B0C121FD8
:1013D00000F8013BF3D238BF121D521E24BF11F892
:1013E000013B00F8013BF8D870470000BBBBE1B1FE
:1013F000B2F5803F80F07E80022A1ED98C46B1FB78
:10140000F2F102FB11C31B0443EA1043B3FBF2FCED
:1014100002FB1C3380B240EA0343B3FBF2F002FB51
:10142000103240EA0C4000237047022A05D9844656
:10143000B0FBF2F002FB10C270474AB105D100F0D8
:10144000010249085FEA300070470022002370471C
:1014500000F0A6BC0B000200002100207047904263
:1014600071EB030CF6D3B3F5803F2FD2F0B5B3FA8E
:1014700083F7B1FA81F4A7F10F0E3D1B5340CEF173
:10148000200602FA0EF2F3415340B5F10F0746D899
:101490000F3C2C444140C4F12006A040F1414140A2
:1014A000B1FBF3F603FB1611A2FB0645001BA94195
:1014B00002D2761E8018594180EA010221FA0EF309
:1014C00062FA0EF200215A403046F0BD30B4B1FB52
:1014D000F3FC03FB1C11A2FB0C45001BA94103D22A
:1014E000ACF1010C8018594130BC02460B466046F5
:1014F00000217047B2F1807F65D3F0B5B2FA82F770
:10150000B1FA81F4C7F10F063D1B22FA06F307F189
:10151000110EF24120355A40B5F10F07B8D94140BC
:10152000C4F12006A040F1414140B1FBF3FC03FBB4
:101530001C11A2FB0C45001BA94103D2BCF1010CFC
:10154000801859410F2F12D30F3FC90341EA504170
:10155000B1FBF3F603FB1611A2FB0645D4EBC0303A
:10156000A94102D2761E8018594146EACC3C07B305
:101570004140C7F12006B840F1414140B1FBF3F6CC
:1015800003FB1611A2FB0645001BA94102D2761EE1
:101590008018594180EA010221FA0EF3C7F12004B4
:1015A00062FA0EF20CFA07F05A402CFA04F13043BA
:1015B000F0BD80EA010221FA0EF3002162FA0EF278
:1015C00060465A40F0BD8C46B1FBF2F102FB11C3FC
:1015D0001B0243EA1063B3FBF2FC02FB1C331B0249
:1015E0004CEA002043EA1063B3FBF2FC02FB1C331D
:1015F0001B024CEA002043EA1063B3FBF2FC02FB3F
:101600001C331B024CEA002043EA1063B3FBF2FCDC
:1016100002FB1C324CEA002000237047B0B581EA7F
:10162000030C0CF0004C40F2FF7515EA11541DBF7D
:1016300015EA1357AC42AF4239E0E41923EA4553A7
:1016400043F48013C90241F0004141EA505EC702F1
:101650001100A7FB020200284FF00000EEFB012062
:101660004FF00001E3FB072118BF42F001024018D0
:1016700000214941E3FB0E01A4F580640F0302D26F
:1016800052004041494154F101046CDD470872F1B8
:10169000004250F1000051EB0451A1F580115CBFF4
:1016A00041EA0C01B0BD4CEA05510020B0BD05EA8D
:1016B0001357AC4214BFAF4241E050EA410E1CBF89
:1016C00052EA430E02E061460020B0BD24423C4491
:1016D0001BD15FEA070EF6D0090302BF01460020C6
:1016E000AEF1140EB1FA81F7AEEB070401FA07FE72
:1016F0000C37C7F1200100FA07F7C8404EEA000E88
:1017000023EA455343F48013A2E733F00043B3FACE
:1017100083F704BFB2FA82FE77440B3FE41BB7F1B4
:10172000200E2FBF02FA0EF3BB40C7F1200E22FAA3
:101730000EFE38BF43EA0E03BA40641C82E750EA4B
:10174000410E14BF52EA430E6FF000014FF4001730
:1017500017EB430F8ABF194617EB410FB5E74CEA69
:1017600005510020B0BDD4F10104B4F120070FDA17
:10177000C4F12007520828BF42F0010210FA07F511
:1017800001FA07F7E1BF2A43E0403843E1400FE0A8
:10179000352C98DCC7F1200452EA400220FA07F207
:1017A00018BF42F0010231FA07F0A1400A430021BC
:1017B00072F1004250F1000051EB0C01B0BD00008D
:1017C00010B5144600F002F8226010BDC1F30A53B0
:1017D00043B14A0012F5001F28D2A3F2FE32A1EB5A
:1017E0000251704750EA410C20D001F0004C31EA20
:1017F0000C01B1FA81F204BFB0FA80F3D2180B3AAF
:10180000B2F120032CBF00FA03F1914041EA0C0130
:101810003EBFC2F1200C20FA0CF319439040524213
:1018200040F2FD33D21A01EB03517047002270479A
:101830004FF4001C1CEB410F94BF1CEB430F09E05D
:1018400041EA030C50EA4C0C52EA0C0C03D29942C8
:1018500008BF9042704714BF8B428242704700001D
:101860004FF4001C1CEB410F94BF1CEB430F09E02D
:1018700041EA030C50EA4C0C52EA0C0C03D28B42A6
:1018800008BF8242704714BF9942904270470000DF
:10189000124254D440F2FF7C1CEA11530FD063452E
:1018A00031D09B1863453CBF01EB0251704701F0FA
:1018B000004141EA0C510020AFF30080704750EA2C
:1018C000410320D001F0004C91EA0C011CD0B1FA88
:1018D00081F30B3B9A420DD9D21A994051EA0C017F
:1018E000C3F1200C20FA0CFC61449840531C40F2D8
:1018F000FF7CD7E7914041EA0C01C2F1200C20FAAD
:101900000CF3194390407047B0FA80F31533202B45
:10191000E0D3202AEED3203A203B9A4209D9D21AAA
:1019200000FA03F141EA0C010020531C40F2FF7C55
:10193000B8E700FA02F141EA0C0100207047524278
:1019400040F2FF7C1CEA11530DD06345DBD0B2EBB3
:10195000030C3CBFA1EB025170470CF1010221EADC
:10196000035141F4801150EA410CCCD001F0004CFD
:10197000352A27DC30B481EA0C01B2F1200309DA00
:10198000C2F12003044601FA03F5D0402843D140B8
:101990009C400CE0C3F12002450020FA03F418BF7C
:1019A00044F0010421FA03F091400C43002174F14A
:1019B000004550F1000051EB0C01244230BC7FF493
:1019C0007BAF70476146002076E70000C1F30A5301
:1019D00040F2FE329B1A14DDD3F120034FEAE1728C
:1019E00008DDC90241EA505141F00040D84080185A
:1019F0005040704703F2E13010B1D24382F0004012
:101A00007047002070470000C11768B14840401A75
:101A1000B0FA80F29040D21CC907C2F5846241EA54
:101A2000025202EBD02140057047000070B44FF025
:101A3000004591EA030F40F1B5816B40841A71EBC8
:101A4000030603D2001BB141121973414FF4001C6D
:101A50001CEB410F34BF7CEB430442E00C0DA4EBC4
:101A60001356352E4FDC45EAC323DB0A45EAC12174
:101A7000C912B6F120050DDD63FA05F6EB4086EAE2
:101A80000305124218BF45F00105C01851F10001CD
:101A90000CD213E062FA06F5F2405540F3415A4089
:101AA000B340F3405A408018594107D349085FEAD0
:101AB00030005FEA350528BF45F0010501F58011CA
:101AC000420875F1004250F1000041EB04514E0014
:101AD00016F5001F70BC38BF70470020090D0905BE
:101AE00070471CEB410F10D252EA43060BD0BCEBFF
:101AF000410F05D80C0DAB43661E342EB6DD02E057
:101B0000AB438018594170BC704770BC70470000EF
:101B1000F0B540F2FF7581EA030C0CF0004C15EAB9
:101B200011541DBF15EA1357AC42AF42E5E0BC416A
:101B3000C1F31301C3F31303801A994143F48013D3
:101B400004D2641E4000494180185941C90241EA4B
:101B50005051B1FBF3F603FB1611A2FB0675D7EB50
:101B6000C020A94102D2761E80185941C90241EA1B
:101B70005051B1FBF3FE03FB1E11A2FB0E75D7EB18
:101B8000C020A94103D2AEF1010E8018594189024B
:101B900041EA9051760546EA8E2EB1FBF3F603FB3F
:101BA0001611A2FB0675D7EB8020A94102D2761E42
:101BB00080185941C90241EA50514EEA060EB1FB64
:101BC000F3F603FB1611A2FB0675D7EBC020A94163
:101BD00002D2761E80185941C90241EA5051B1FB28
:101BE000F3F703FB1711A2FB0735D3EBC020A94184
:101BF00067F100070CBF004247F0010766F3D527E5
:101C00004FEA1E31B80814F5806412DDBD0775F186
:101C1000004250EB0E5051EB045111F5801F5CBF98
:101C200041EA0C01F0BD4CF07F6141F0E041002041
:101C3000F0BDBD076D0840EA0E5041F48011D4F1AB
:101C40000104B4F120060ADAC4F120060200E040E3
:101C500001FA06F3E1401843B24015430EE0342C7C
:101C600013DCC6F1200445EA40056D0820FA06F2AF
:101C7000154321FA06F0A1400D43002175F1004201
:101C800050F1000051EB0C01F0BD00205FEA0C01A7
:101C9000F0BDCFB992185B41B3FA83F704BFB2FA33
:101CA00082F6BF190B3FB7F120062FBF02FA06F3E9
:101CB000BB40C7F1200622FA06F638BF3343BA40CC
:101CC0001CB1E419641E33E77F4231F00041B1FAE0
:101CD00081F404BFB0FA80F6A4190B3CB4F12006DD
:101CE0002FBF00FA06F1A140C4F1200620FA06F643
:101CF00038BF3143A0403C1B1AE7AC421ABF05EA8B
:101D00001357AF4212E050EA41061CBF52EA4306A5
:101D1000BFE750EA4107304661461CBF41EA055122
:101D2000F0BD52EA430C08BFC143F0BD00204FF4A0
:101D3000001616EB410F98BF16EB430F08BF16EBCA
:101D4000410F24BFC14305E016EB430F0CBF6146B2
:101D50004CEA0551F0BD0000400D491840EA8120D1
:101D60000CD2490DA1F58061491C40F0004005DB13
:101D7000D1F11F0154BFC840C01770470020704701
:101D8000014648B1B0FA80F18840C91CC1F58461B0
:101D9000090501EBD02140057047012000F0B8B8DB
:101DA00070470000841A71EB030604D26E40001BDA
:101DB000B141121973414FF4001C1CEB410F34BFA9
:101DC0007CEB430683E00C0DA4EB1356362E00F398
:101DD0007C80012E45EAC32341DC43EA525312BF03
:101DE000D20292025B08240545EAC12141EA505122
:101DF000D2EBC020994125D407D1B0FA80F610FA71
:101E000006F162D00020203608E0B1FA81F6B14038
:101E1000C6F1200220FA02F21143B0404FEAF474F6
:101E2000B4EB465434F001064FEA74040AD8D6F5F0
:101E30000016760D04F00044F04061FA06F25040BE
:101E4000F1404840C00A40EA415021F0004128BF1B
:101E50005FEA500550F1000044EBD12135E0DB0A88
:101E600045EAC121C90AB6F120050EDD42EA024267
:101E7000120CC5F1200603FA06F6EB4042EA06050D
:101E80006D42984161F100010DE062FA06F5F24001
:101E9000554063FA06FC82EA0C02F3405A406D4258
:101EA000904161EB030111F4801F05D1641E6205AE
:101EB00002D06D004041494121F48011430875F181
:101EC000004350F1000041EB045170BC70471CEB23
:101ED000410F15D223F0004352EA43060BD04FEADC
:101EE0004C0CBCEB410F04D80C0D661E342EB7DD34
:101EF000EBE7801A994150EA410608BF0021E4E768
:101F000008BF1CEB430F28BF6FF00001DDE70000A6
:101F100080B5AFF30080024A11001820ABBEFBE78A
:101F2000260002001CB501F00F0141F03001802BAA
:101F30008DF80010A8BF7F2304468DF801208DF88E
:101F4000023005210DF1030000F0D0FB00F001F894
:101F500016BD20680822694600F0ABBCFEB50446F9
:101F60000D466089082808DB42220FF278510FF2F3
:101F70005C5000F0BBFCAFF3008000F08BF88DF8F4
:101F80000000A07A00F00F008DF800000DF10100B4
:101F90006689616837463A46FFF7D4F9C7F1070703
:101FA0000DF101003946304400F0A0FB00F001F8CB
:101FB000FEBD08226946284600F07BBC3EB50446BB
:101FC0000D466089082804DA5C2200F05DF8AFF362
:101FD000008000F05FF840F010008DF8000006224D
:101FE00060898DF801006089000A00F00F0040F060
:101FF00010008DF800000DF102006168FFF7A2F9F2
:10200000FFF7D7FF20B9A189891D0122A181A27301
:102010003EBD3EB504466089082804DA752200F00A
:1020200033F8AFF3008000F035F840F020008DF871
:102030000000A07B00F00F0040F020008DF80000B1
:102040006589A08961682D1AADB2072D88BF072563
:1020500001442A460DF10100FFF774F90DF101006A
:10206000C5F10701284400F041FBFFF772FF50B9AA
:10207000A1896D18A17BA581491CA173C9B2102942
:10208000A4BF0021A1733EBD0FF258410FF2904052
:1020900000F02CBC9DF8000000F00F00704738B530
:1020A0000D460446287810F00F0F04D000F00F0002
:1020B000521E824202DA0FF27C4066E00246A06ABB
:1020C000691CFFF73FF9287800F00F00E085002039
:1020D00032BD70B50446082A6FF0060518BF0FF22E
:1020E00074400AD10A78487802F00F0200EB022609
:1020F000B6B2082E05DA0FF2884000F0D7FB28466A
:1021000070BDA08DB04206DA0FF2A04000F0CEFB09
:102110006FF0020070BDA06A0622891CFFF712F959
:1021200006202086E685012184F83210002070BD4B
:1021300038B504460B7894F8320003F00F03984248
:1021400002D06FF0030032BD208EE58D2D1AADB2A6
:10215000072D88BF0725521EAA4202DA0FF28440DB
:1021600013E0A36A2A46491C1844FFF7EBF8208EB7
:102170002D1894F832002586401CC1B21029A8BF42
:10218000002084F83200002032BD00F08FFB6FF099
:10219000060032BD13460A46016870B504000D46BC
:1021A000A0B011461E4606D10FF2784000F07EFB2B
:1021B0004FF0FF3041E02089324690420DD20FF2BD
:1021C000744000F073FB23890FF2BC41324668462D
:1021D00000F09EFB6FF002002FE094F82000012831
:1021E00006D10FF2D44000F061FB6FF0010024E053
:1021F0000020A08166816068FFF7A4F86089082844
:102200002946204603DAFFF7A9FE054614E0FFF74A
:10221000D5FE050010D100202082A074E07400F0EB
:1022200063FB606100F060FB00F5FA70A0610121C2
:102230000020E06184F82010284620B070BD000026
:10224000FEB515462E46B21E072A04464CD232462B
:102250006846FFF777F8C6F1080631460DEB050032
:1022600000F044FA9DF800100909032904F134062E
:102270006FF005006FF0070736D8DFE801F0020FB6
:102280003667317A012918BF002070602A466946F6
:102290002046FFF704FF002826D142E0317A0129C9
:1022A00018BF002070602A4669462046FFF711FFDC
:1022B00010F1030F06D17760002030720023002256
:1022C00002213FE000280FD101203072642184F800
:1022D00033100023642200212046FFF723FE00F084
:1022E00003FB00F5FA703060F7BD317A012901D0A7
:1022F0007060F7BD2A4669462046FFF719FF6FF068
:102300000301884202D1716000200BE000285ED1F9
:1023100000F0EAFA00F5FA703060E18D208E884214
:1023200002D302203072F7BD94F83300401E84F8C7
:102330003300C0B200284AD1642084F8330000235F
:10234000642200212046FFF7EDFDF7BD94F8200040
:1023500001283CD1022D03DCAAA000F0A7FAF7BDAA
:1023600000F0C2FA00F5FA70A061FFF793FE0228B0
:1023700003D1E76184F82000F7BDFFF78BFE012849
:102380000CD1E07C401CE074C0B201281FDD6FF06E
:1023900006000221E06184F82010F7BD9DF80000DE
:1023A00010F00F0F13D19DF8010008B94FF6FF7020
:1023B00020829DF80200A0F1F101082998BF0120B8
:1023C00002D98028A8BF0020A0740020E074F7BDC7
:1023D00070B50446084694F83C1002291D4602D008
:1023E0006FF0040070BDE68DA16AB242B8BF164618
:1023F0003246FEF7A7FF2E70002084F83C0070BD27
:102400002DE9F8430E46089F099C054691469846DB
:10241000402100F09DFA002285F83C2085F820201C
:102420002E60C5F80490A5F80880AF62AC85BDE8C1
:10243000F18338B5044694F82000012835D1208A6C
:102440004FF6FF75A84200D020B3A07C20B100F069
:102450004BFA6169081A1DD52046FFF7DAFDB0B9BD
:10246000208AA8421CBF401E208200F03DFA00F5E1
:10247000FA70A06100F038FAA17CA289401860616E
:102480006089824206D3002184F8201002E00220F5
:1024900084F8200000F028FAA169081A05D56FF029
:1024A00001000221E06184F8201094F83C0001282A
:1024B0000AD100F019FA616B081A05D56FF0020015
:1024C0000021A06384F83C1031BD00006C696E6B84
:1024D0002D3E73656E645F73697A65203C3D2037DD
:1024E00000000000453A5C576F726B50726F6A656E
:1024F00063745C41515F53544D5C53544D333246C9
:102500003430375C424C455F4F42445C436F7265E8
:102510005C5372635C69736F74702E63000000001B
:102520006C696E6B2D3E73656E645F73697A6520AE
:102530003E20370053696E676C652D6672616D656C
:10254000206C656E67746820746F6F20736D616CAA
:102550006C2E00004669727374206672616D65208E
:1025600073686F756C6420626520382062797465C9
:102570007320696E206C656E6774682E0000000021
:1025800053686F756C64206E6F7420757365206D71
:10259000756C7469706C65206672616D652074720B
:1025A000616E736D697373696F6E2E004D756C7417
:1025B000692D6672616D6520726573706F6E7365EB
:1025C00020746F6F206C6172676520666F72207275
:1025D0006563656976696E67206275666665722EE9
:1025E00000000000436F6E73656375746976652043
:1025F0006672616D6520746F6F2073686F72742EE0
:1026000000000000466C6F7720636F6E74726F6C11
:10261000206672616D6520746F6F2073686F7274CD
:102620002E0000004C696E6B206973206E756C6C17
:10263000210000004D6573736167652073697A65D9
:1026400020746F6F206C617267652E20496E637213
:10265000656173652049534F5F54505F4D41585F2A
:102660004D4553534147455F53495A4520746F20A8
:102670007365742061206C61726765722062756693
:102680006665720A00000000417474656D707465BF
:102690006420746F2073656E6420256420627974F1
:1026A00065733B206D61782073697A6520697320BA
:1026B0002564210A0000000041626F72742070726C
:1026C0006576696F7573206D6573736167652C201E
:1026D0007472616E736D697373696F6E20696E20B9
:1026E00070726F67726573732E0A0000002200F02B
:1026F00037B9000010B58AB001200890002107907A
:102700000591049106910291039100910191714C00
:10271000204600F035FA6946204600F0C8F902214B
:10272000204600F052FB012005906B4C204600F043
:1027300027FA6946204600F0BAF90221204600F047
:1027400044FB0AB010BD3EB56420644C019004F512
:102750009E750095642304F5D0724FF4FD6104F179
:10276000BC00FFF74DFE642104F50170019100905B
:10277000642304F51A724FF4FD6104F1FC00FFF7C5
:102780003FFE37BD10B5554C04F1BC00FFF751FEBC
:1027900004F1FC00BDE81040FFF74BBE70B54F4C94
:1027A000054604F1480304F10802002100F091FA03
:1027B000A068A169E063A18000F012FCE06BA28830
:1027C000474E40F2DF71884204D100F02EF804F148
:1027D000FC0006E0B0F5FC6F13D100F026F804F120
:1027E000BC00FFF72DFDA288256404F1480104F127
:1027F0005000FEF7A7FD3046BDE87040102100F004
:10280000D7BFA068B0F5C27F18BFB0F5C37F0BD1AA
:102810000121304600F0CCFFA269A06804F1480114
:10282000BDE8704001F064B870BD0520A070D2B260
:1028300004F14801704738B5284C04F1BC05631C0D
:10284000642204F158012846FFF7C2FD207094F974
:10285000000030B90021E17004F15800611C01F062
:10286000B7F8631C642204F1580104F1FC00FFF77F
:10287000AFFD207094F9000030B90121E17004F13E
:102880005800611C01F0A4F8627872B11548017813
:1028900001290AD104F158012846FFF77BFC20707A
:1028A00094F9000008B90021617031BD0EB403B085
:1028B000704738B5094C636C606262630020E06267
:1028C00000250A46206C256304F1240100F096F9E6
:1028D000002032BDC4060020EC060020300000209D
:1028E000000402400200002001F0AAB900B583B044
:1028F0000091019202906A4604491820ABBE00285C
:1029000001D1FFF74AFA03B000BD00BF101002006A
:102910000CB430B583B00A4606A9029104460025DE
:102920000194009502AB01A9084878441E30FDF7D8
:102930002BFC019A157000284EBF04460198041B19
:10294000204603B030BC5DF80CFB00BFEFE9FFFF91
:10295000002201F07FB9000062F30F2262F31F42F0
:10296000401810F0030308D0C91A1FD3DB0748BF73
:1029700000F8012D28BF20F8022D130030B41446B2
:102980001546103928BF20E93C00FAD8490728BF6E
:1029900020E90C0048BF40F8042D890028BF20F82A
:1029A000022D48BF00F8012D30BC7047C91818BF70
:1029B00000F8012DCB0728BF00F8012D704700005B
:1029C00038B504001ED094F8200010B9204600F05D
:1029D00077FD2068016821F00201016001F030F903
:1029E0000546206841688A074ED501F029F9401B49
:1029F0000B28F6D304E001F023F9401B0B2846D343
:102A000000F0E4F8012032BD016821F0800101608E
:102A1000607E00F048F80CBF41F0400121F0400119
:102A20000160A07E00F03FF80CBF41F0200121F0D2
:102A300020010160E07E00F036F80CBF21F01001AB
:102A400041F010010160207F00F02DF80CBF41F033
:102A5000080121F008010160607F00F024F80CBF3C
:102A600041F0040121F004010160A268E0682169DD
:102A7000024360690A43616802432068491E0A43B1
:102A8000C26100216162A9E000F0ADF8054620684E
:102A90004168CA07AFD5217E0129B5D1026842F04D
:102AA00080020260B4E70128206801687047F0B531
:102AB00090F82020012A18BF022A54D14D4A1068EC
:102AC00040F001001060136823F47C531360106819
:102AD0004B6A40EA0320106001200B7D03F01F03C6
:102AE00000FA03F3D069DC432040D061424800F58E
:102AF000117500F51076C86958B9D0682040D060CB
:102B0000CF6800F034F80F68C7EA004C486945F810
:102B100030C0C86901280BD1D0681843D0600F6855
:102B200000F025F8CE684F69C6EA004045F8370046
:102B30008869002850680CBF20401843506008691D
:102B40000028506907BF0440546118435061086A67
:102B5000012802D1D0690343D361002011684908DC
:102B600049001160F0BD416A41F48021A8E0486845
:102B7000D1F814C0C0EA074746F83C70886870472F
:102B800038B5044694F82000012816D1022184F8B3
:102B900020102068026852085200026001F050F8CC
:102BA000054620684168C8070DD501F049F8401B6B
:102BB0000B28F6D300F00AF803E0606A40F4002026
:102BC0006062012032BD0020606232BD606A40F464
:102BD00000306062052184F820107047012084F8DD
:102BE0002000002032BD016841F00101016001F0C8
:102BF00027B800000066004000640040F0B590F87F
:102C000020400568AD68012C18BF022C55D115F085
:102C1000E05F4ED0C5F30164032C03D3416A41F455
:102C200000014DE00125A5401D6024010368CE6828
:102C300003F5C0758B681BB90B6846EA435603E081
:102C40004F6843EAC7031E432E5105680B6905F51B
:102C5000C2763351097D012906D1036803F5C2719B
:102C60000D5945F480750D519379D17955791B042F
:102C700043EA0163117943EA0523056825440B43C0
:102C8000C5F88C319378D17855781B0443EA0163F9
:102C90001178026843EA052322440B43C2F88831C5
:102CA000006800F5C070015941F001010151002098
:102CB000F0BD416A41F4001102E0416A41F4802113
:102CC00041620120F0BD416A41F48021416201204E
:102CD0007047F0B590F82040012C18BF022C66D147
:102CE0000029046801D1E56800E0256915F0030FAB
:102CF00003D1416A41F400115CE00D0104F5D8767E
:102D0000745914F004049460066806F5D87603D16B
:102D10007459640D146002E07659F6085660046830
:102D200004F5D876775907F00207D76000F043F82A
:102D300006F00F06166100F03EF8C6F30724946112
:102D400000F039F8360C566102682A44D2F8B841CE
:102D50001C7006682E44D6F8B821120A5A7004680E
:102D60002C44D4F8B821120C9A7004682C44D4F87E
:102D7000B821120EDA7000F023F81A7100F020F872
:102D8000120A5A7100F01CF8120C9A7100F018F82F
:102D9000120EDA71006821B9C16841F02001C160EA
:102DA00003E0016941F0200101610020F0BD416AAA
:102DB00041F4802184E704682C44D4F8B46170475E
:102DC00004682C44D4F8BC21704790F82020012AD4
:102DD00018BF022A03D100684269114300E072E77C
:102DE0004161002070472DE9F84F05464FF000087B
:102DF00028684669D0F804B08468D0F80C90D0F800
:102E000010A08769F10745D5E20713D5012181603C
:102E1000A00703D5284600F036FF0BE0600748BF47
:102E20004FF4006806D420074EBF4FF48058284660
:102E300000F02AFFE00515D52A684FF48071A0053F
:102E4000916003D5284600F020FF0BE0600548BFE5
:102E500048F4005806D420054EBF48F48048284660
:102E600000F014FFE00315D52A684FF48031A00369
:102E7000916003D5284600F00AFF0BE0600348BFCD
:102E800048F4004806D420034EBF48F48038284652
:102E900000F0FEFE300748BF5FEAC96104D529682B
:102EA000102048F40078C860700748BF5FEA0971D5
:102EB00005D52A680820D060284600F0EAFEB00751
:102EC00007D52968C86810F0030F1CBF2846FFF714
:102ED00065FC700648BF5FEACA6104D52968102006
:102EE00048F480680861B00648BF5FEA0A7105D5FA
:102EF0002A6808201061284600F0CCFEF00607D5AD
:102F00002968086910F0030F1CBF284600F0C3FEB3
:102F1000B00348BF5FEACB6105D52A681020506036
:102F2000284600F0B9FEF00348BF5FEA0B7105D5F3
:102F30002A6808205060284600F0AFFE300440D5D3
:102F40005FEA4B713AD5F00503D5F90748BF48F061
:102F50000108B00503D5B90748BF48F0020870055D
:102F600003D5790748BF48F00408300526D517F087
:102F7000700F23D007F07007102F0CD0202F0DD02A
:102F8000302F0ED0402F0FD0502F10D0602F08BF01
:102F900048F480780DE048F008080AE048F010088E
:102FA00007E048F0200804E048F0400801E048F05D
:102FB00080082868816921F07001816104202968F6
:102FC0004860B8F1000F08D0686A48EA00006862FB
:102FD0002846BDE8F24F00F061BEBDE8F18F000069
:102FE0002DE9F04FDFF89C15DFF89CB50A88DFF873
:102FF0009C75DFF89C55DFF89C6586B042F00103B4
:1030000042F00200ADF81430ADF8120042F00403B3
:1030100042F00800ADF81030ADF80E0042F0100399
:1030200042F02000ADF80C30ADF80A0042F0400349
:1030300042F08000ADF80830ADF8060042F480732D
:1030400042F40070ADF80430ADF8020042F4806341
:10305000DBF80800ADF80030002842F4006342F4C9
:10306000805842F4005942F4804A07F1780C07F185
:10307000500E07F1280440F0A080DBF80000A0F219
:10308000811BBBF1070F24BFA0F5B07BBBF1260F5E
:1030900035D24FF0000B86F800B04FF4B076801BAD
:1030A00087F800B087F814B084F800B084F814B042
:1030B0008EF800B08EF814B08CF800B08CF814B014
:1030C00027D0401E2AD0401E2DD0401E30D0401E9A
:1030D00033D0401E36D0401E39D0401E3DD0401E59
:1030E00041D0401E45D018380AD0801E0CD0401E5A
:1030F00045D0401E49D0401E4DD0401E51D09BE1CE
:1031000081207870BA1C69E08320B87207F10B0245
:103110007AE06020787507F1160285E06120B877C3
:1031200007F11F0290E06220607007F12A02A6E01A
:103130006320A07207F13302BCE06420607507F1E0
:103140003E02D2E06520A07707F14702E6E0662064
:103150008EF8010007F15202F2E067208EF80A00B3
:1031600007F15B02FCE068208EF8150007F16602AB
:1031700008E169208EF81E0007F16F0218E1842033
:103180008CF8010007F17A0228E185208CF80A000A
:1031900007F1830236E186208CF8150007F18E02D4
:1031A00047E187208CF81E0007F197032868186014
:1031B00042F40042686858603EE1DBF80400DFF842
:1031C000D8B358450FD10120307038701023262015
:1031D000B8707B702220FB7038717A1D00F04FF9B7
:1031E000BDF8142028E1DFF8B4B3584511D101200F
:1031F00030703875D0221120B875FA751823F32075
:103200007B75387607F1190200F039F9BDF8122004
:1032100012E1DFF88CB358450BD100F02AF91220E7
:1032200000F01BF907F12D0200F029F9BDF810207C
:1032300002E1DFF870B358450BD100F014F9142007
:1032400000F005F907F1410200F019F9BDF80E2070
:10325000F2E0DFF85443A04216D1012030708EF81E
:103260000000D02215208EF802008EF803201823CB
:10327000F3208EF801308EF8040007F1550200F0BB
:10328000FEF8BDF80C20D7E0DFF82043A04216D1AD
:10329000012030708EF81400D02216208EF816000F
:1032A0008EF817201823F3208EF815308EF81800AA
:1032B00007F1690200F0E3F8BDF80A20BCE0DFF88E
:1032C000F042A04216D1012030708CF80000D022CC
:1032D00017208CF802008CF803201823F3208CF8B8
:1032E00001308CF8040007F17D0200F0C8F8BDF849
:1032F0000820A1E0AF4CA04215D1012030708CF81D
:103300001400D0228CF817201823F3208CF81530E5
:103310008CF816308CF8180007F1910200F0AFF825
:10332000BDF8062088E0DFF890E2704507F1A004C0
:103330000BD100F09EF8192000F08FF807F1A502DC
:1033400000F09DF8BDF8042076E0DFF870E27045EB
:103350000BD100F088F81A2000F079F807F1B902D3
:1033600000F08DF8BDF8022066E0DFF854E2704509
:1033700007F1C8040BD100F07CF8132000F06DF8C1
:1033800007F1CD0200F07BF8BDF8002054E0DFF833
:1033900034E2704510D1012030702075D022182001
:1033A00060751B20A075E275F320207607F1E1021D
:1033B00000F065F81A463FE0834CA04207F1F003A5
:1033C00010D1012030701870D02218205870DA7097
:1033D0001C20987007F1F502F320187100F04FF8E7
:1033E000424629E0794CA04210D101203070187576
:1033F000D02218205875DA751D20987507F2091229
:10340000F320187600F03BF84A4615E0704B9842DE
:1034100012D101203070012207F58C701823027040
:1034200043701E228270F323D022C270037107F210
:103430001D1200F024F852460A80088820B1654821
:10344000654B05210170197006B0BDE8F08FA075BD
:10345000D022E275F32020767047A070D022E2706F
:10346000F320207170470120307020751823637598
:1034700070470120307020701823637070472868EF
:10348000106068685060704780B5554855490160C4
:103490000822426000234FF440224FF480118360E1
:1034A000C36000F003F800B106E001BD02614161B4
:1034B00083618383FFF784BABDE8014000F034BD27
:1034C00038B586B0044601A81421FFF741FA464AF0
:1034D00013682468414D454845495B1CAC420DD1F9
:1034E000012B00F039F84FF4407200F025F800226B
:1034F0000421142000F034FD142019E0394DAC42B1
:1035000018D100240094012B0D6945F080650D61F0
:103510000C6904F080640094009C00F01DF86022A7
:1035200000F00AF800220421402000F019FD40209C
:1035300000F033FD07B030BD096801F002010091D1
:10354000009901920293002203920323092204931B
:10355000059201A900F04EB813600AD10022009232
:103560000B6943F000730B610A6902F0007200926C
:10357000009A0023009302230A6842F002020A60C4
:10358000704700009A0600203800002064030020E5
:10359000780000203E07002022102610F3D01118DA
:1035A000F3D01218F3D01418F3D01518F3D016185E
:1035B000F3D01718F3D01818F3D01918F3D01A183D
:1035C000F3D01318F3D01B18F3D01C18F3D01D1828
:1035D000F3D01E1803030020040300200064004001
:1035E000EC06002000680040340700200004024080
:1035F000303802402DE9F84F0D464FF0000875496C
:103600000F22012304462E6803FA08F000EA060997
:10361000814540F0C5804FEA480C032606FA0CF6B7
:103620006FEA060E6E6806F00307012F1CBF06F056
:103630000306022E11D1A668EF680EEA060607FA05
:103640000CF73E43A660666826EA00006E68C6F383
:10365000001606FA08F6304360604FEA88002E79BB
:1036600006F00306032E1FD0E668AF680EEA0606D2
:1036700007FA0CF73E43E6602E7906F00306022EA9
:1036800012D14FEAD80604EB860600F01C07D6F8E4
:1036900020A002FA07FB2AEA0B0AD5F810B00BFAB1
:1036A00007F747EA0A07376226680EEA06072E7907
:1036B00006F0030606FA0CF63E4326606E68F60036
:1036C0006ED5002600964FEA980C0E68DFF808E1E8
:1036D00046F480460E6000F00C000E6806F480464A
:1036E0000096009E5EF82C7002FA00F627EA0606A5
:1036F0003A4FBC4208BF002722D0394FBC4208BF16
:1037000001271DD0374FBC4208BF022718D0364FC3
:10371000BC4208BF032713D0344FBC4208BF042764
:103720000ED0334FBC4208BF052709D0314FBC42F1
:1037300008BF062704D0304FBC420CBF072708271C
:1037400007FA00F030434EF82C006FEA090C2B48C2
:1037500006680CEA060E6E68F70348BF49EA0E0ECB
:10376000C0F800E046680CEA060E6E68B70348BF72
:1037700049EA0E0EC0F804E086680CEA060E6E6890
:10378000F70248BF49EA0E0EC0F808E0C6680CEA26
:10379000060E6E68B60248BF49EA0E0EC0F80CE08D
:1037A00008F10108B8F10F0F7FF62DAFBDE8F18FDA
:1037B0000069084018BF0120C0B2704702B909046F
:1037C00081617047426901EA0203914341EA034182
:1037D00081617047443802400838014000000240CF
:1037E0000004024000080240000C024000100240A9
:1037F0000014024000180240001C0240003C01403E
:1038000070B500200021DFF8E823DFF8E83306E098
:1038100070B500200021DFF8D823DFF8DC3333F85F
:103820002140012C0AD103EB81056C88C5B2260A20
:1038300002F8156002EB4505401C6C70491C142908
:10384000EDDBDFF8B813487070BD80B55022002161
:10385000DFF8A00300F0CCFBBDE8084050220021B7
:10386000DFF8940300F0C4BB78B585B000F001FC2C
:103870000B2102910120002101900390009102226E
:1038800004926846DFF86C53DFF8744305F1500189
:1038900000F0A8FC0026F0B255F8202000232146B5
:1038A000022000F0AFFB761C241DF0B21428F2DBDE
:1038B00000F0EFFB06B070BD38B50021DFF8402303
:1038C000DFF8300352F8043BCCB2491CCDB240F8CB
:1038D0002430142DF6DB41884FF6FF72914206D159
:1038E0005022002100F084FBBDE83140BCE731BD2F
:1038F00038B5B0F5C37F0C4612D120786178A27834
:1039000000EB0120E17800EB024000EB0160B0F138
:10391000004FBA4928BF401C88852079087031BD06
:10392000B0F5C27F53D1B44D50220021284600F09B
:103930005FFBE178AF484A0707D5012101800122EA
:103940004FF4907141802A806980E178CA0707D5D9
:1039500001218180012240F62B21C180AA80E980CB
:10396000A1780A0707D501210181012240F6FB2138
:1039700041812A816981A1788A0607D50121818147
:10398000012240F6FA21C181AA81E981A1780A06C3
:1039900007D501210182012240F63F2141822A827E
:1039A0006982A1788A0707D501218182012240F628
:1039B0001B21C182AA82E982A178CA0607D501210A
:1039C000018340F63C21418301202883698331BD76
:1039D0002DE9F04389468DB099F800800027002139
:1039E000044603E0625C0DF80120491C4145F9DB07
:1039F0006421FEF77BFE9DF80020804E403222704D
:103A000001259DF800007F4A012826D1B8F1020F58
:103A100027DB9DF8010020B10C2809D0112811D016
:103A2000D7E06770A07010218020E17020719DE0C8
:103A30000C2161700425B08D80000104090EA17075
:103A4000E07095E01121617064213078C0EB0020B6
:103A500090FBF1F1A17003258AE0022852D1B8F160
:103A6000020F40F3A38000230FE001270CE0112593
:103A7000655405460020E9B26D1C6054C820E9B2C7
:103A80006D1C60540120B0705B1CA8F101005FFA4E
:103A900083FC00EBD070BCEB600F80F298800DF1DE
:103AA000010E681C1EF81CC0BCF1000FE9B209D061
:103AB000BCF1020F16D0BCF10C0F1BD0BCF1110FE2
:103AC000D5D0D2E7002500F0A1F8402060546D1C4D
:103AD000E9B2102060546D1CE9B2802060546D1C66
:103AE0000020CCE7022500F091F80A2060546D1CFC
:103AF000FA20C4E70C2565540546E9B2002060545D
:103B00006D1CB8E703280FD1FFF77AFE7078C0B1BB
:103B1000707837496070A01C7278520000F010FC79
:103B200075786D00AD1C23E0042803D1FFF78DFEEE
:103B3000B57045E0072807D1FFF76AFE70780028C6
:103B4000E6D16770022513E009282FD1B8F1020FE2
:103B50002CDB9DF8010020B102280CD00A2817D0D8
:103B600037E067704020A070E0702771677106250C
:103B70000120B07024E0A5700221617003250020AF
:103B80000127311D00F054F81129B770F9DB17E057
:103B900060700121A17003250020012706F11801A2
:103BA00000F046F81429B770F8DB09E07F20207098
:103BB000112000F033F803D111E0B078012811D1C1
:103BC00089F8005080211048FFF7FCFD0DE0002F20
:103BD000F3D07F2020707E2000F020F8F0D100216B
:103BE0001170B170002189F800100DB0BDE8F083AC
:103BF0009C06002088050020DC0500200000002035
:103C000000000E0833000020000402406554054601
:103C1000E9B2002060546D1CE9B270479DF80010B5
:103C20006170A0700121B1700325107801287047E0
:103C3000C2B2401C8B5CE9B26D1C6354C1B27047C8
:103C400001484068704700BFF804002062F30F226B
:103C500062F31F4200B500BF130096469446103928
:103C600028BFA0E80C50FAD85FEA417C28BF0CC0FE
:103C700048BF40F8042BC90728BF20F8022B48BFD3
:103C800000F8012B00BD70477047704770477047C0
:103C90007047704770477047704770477047000023
:103CA00010B5974C002104F1280000F08EFB91A183
:103CB000944800F041FC00B10120A07010BD38B55F
:103CC0008F4D914CA878012804D101218F48FFF72E
:103CD00079FD04E0012202212046FFF76FFDE8781C
:103CE00020B108212046FFF76DFD04E001220821E4
:103CF0002046FFF763FD8649087830B1401E087002
:103D000004212046FFF75EFD04E001220421204645
:103D1000FFF754FD2046BDE834400221FFF752BDB5
:103D200010B5774CE07800281CBF2079002808D017
:103D3000A078012805D100F09EFB207908B1401E33
:103D4000207110BD2DE9F04100F00EFC00F081F86B
:103D500000F024FC00F086FCFEF7F5FC684C664D94
:103D60006C4FDFF8B4810120A06140F223110020E4
:103D7000A16020616061FF224FF4C87104F164000A
:103D8000FFF764FF00224FF400612846FFF716FD9D
:103D900001224FF480712846FFF710FDFFF78CFDDC
:103DA000FFF72EFD5D4D28786070012204F124019B
:103DB000524800F045FD0A2000F08CFF002104F17C
:103DC0003C0000F002FBFFF75FFBFEF793FC04F5FD
:103DD000FA76FFF765FFFEF7D5FCFEF72CFDFFF73F
:103DE0002FFF216A401AB0F5487FF2D3FFF728FF72
:103DF0002062FFF705FD60782978884203D0FFF73D
:103E000033FD2878607055212170FFF701FD287877
:103E100008B1AA212170FFF7F3FC287808B1AA2184
:103E200021703346224604F108014046FEF7E6FEC3
:103E30003346224604F108013846FEF7DFFEFFF75D
:103E40003EFFFFF76DFFE0780028C2D0401EE07013
:103E5000BFE780B592B006A83021FEF779FD01A832
:103E60001421FEF775FD002000904FF480332C489C
:103E7000016841F0805101600021006800F080502D
:103E80000090009827480091026842F48042026046
:103E90000122006800F48040009006A80099069274
:103EA00002214FF480020C910D9208214FF4807290
:103EB0000E910F920221042207931091119200F0AB
:103EC0001DFF08B100F030F8022102910022039298
:103ED0000F204FF4A051019004914FF480520592AD
:103EE000042101A801F0A2F808B100F01DF813B0F8
:103EF00000BD000035000000000002402C0600203C
:103F00000003002070060020000C02400004024064
:103F100032000020C4060020EC0600200100002032
:103F2000403802400070004072B6FEE7090102000E
:103F300002D4294881547047284B02F00F021A44DA
:103F400002F8041C7047264B19684FF6FF02000266
:103F5000114000F4E06008432249084318607047AC
:103F600038B51F4B1C68C4F30223C3F10704052CAA
:103F700028BF04241D1D072D34BF0023DB1E01258F
:103F800005FA04F4641E2140994005FA03F35B1E10
:103F90001A401143BDE83440C8E7010007D40122AC
:103FA00000F01F01104B8A40400943F82020704761
:103FB00010B5401EB0F1807F01D3012010BD0B4C25
:103FC00060600F214FF0FF30FFF7B0FF0021A160CC
:103FD00007202060002010BD00E400E018ED00E0A4
:103FE0000CED00E00000FA0500E100E010E000E068
:103FF00010B5044610460A4601462046FEF7ACFCC2
:10400000204610BD2DE9F843704F0646387E012842
:10401000894614461D4608BF022028D00120387664
:104020004CF25038404600F03CF801001DD14846A3
:1040300022462B461EB9D1B200F08CF80DE0012EBD
:1040400003D191B200F070F807E0022E03D11146BF
:1040500000F061F801E000F04AF8404600F021F875
:104060005B490A68520852000A6000213976BDE8AF
:10407000F2835949CA680020002A00D4704710B55D
:10408000564A574C0A600C60C968002948BF012095
:1040900010BD4F48016841F00041FFE7016000207A
:1040A000704770B5044649494A4E0020C861FFF781
:1040B000C7FD05463068C1030CD514F1010FF9D0D6
:1040C00024B1FFF7BDFD401B8442F3D2032070BD35
:1040D000002070BD3068C10744BF012030603168E6
:1040E00011F0F20FF4D000F03FF8012070BD30B5B0
:1040F00037490C6824F440740C600D6845F4407531
:104100000D600C6844F001040C6040F8042BBFF310
:104110006F8F036030BD10B500F015F844F40074E3
:1041200000F00BF8016010BD10B500F00CF844F47D
:10413000807400F002F8018010BD1460136843F031
:10414000010313607047224A136823F4407313601D
:104150001468704730B5FFF7F6FF1460156845F036
:1041600001051560017030BD1A4918480A68D30668
:1041700005D5C26942F01002C26110230B600A68C3
:10418000930605D5C26942F00802C26120230B6084
:104190000A68530605D5C26942F00402C261402391
:1041A0000B600A68130605D5C26942F00202C261BB
:1041B00080230B600A68930705D5C26942F020028C
:1041C000C261022008607047000000001407002050
:1041D000103C02400C3C0240043C02402301674575
:1041E000AB89EFCD2DE9F047524E0446307E0128D1
:1041F000894608BF02203CD0012030764CF2503A6C
:104200005046FFF74EFF804680BB4FF0FF30C9F8A5
:1042100000002168484D01290DD120696168C0B2B4
:1042200000F029F85046FFF73CFF8046286820F050
:104230000400286018E0A76800E07F1CE068A1681F
:104240000818874210D22169C9B2384600F023F815
:104250005046FFF726FF5FEA0008286820F0FA00C2
:104260002860EAD0C9F8007000F03BF800203076F2
:104270004046BDE8F08730490A6822F440720A607F
:1042800000020B6843F004030B6040F480300A68BE
:1042900010430860704710B500220B000AD00129B6
:1042A00008BF4FF4807205D002290CBF4FF4007292
:1042B0004FF4407220490B6823F440730B60C00038
:1042C0000C6822430A6040F002000A6822F0F802FB
:1042D0000A600B6818430860086840F48030086082
:1042E00010BD164801688A050FD5016821F40071D8
:1042F0000160026842F400620260016821F400611A
:104300000160026842F40072026001684A050FD53C
:10431000016821F480610160026842F48052026009
:10432000016821F480510160026842F480620260F9
:104330007047000014070020103C0240003C02407F
:1043400010B50446FCF7FEFF204610BD01B56F48CE
:10435000006801680A06FAD54FF6FF730122694624
:104360006A4800F014FA01BD70B504460D460026F7
:10437000A05DFFF7EBFF761CAE42F9D370BD38B5F8
:1043800004460025605DFFF7E1FF6D1C605D0028BD
:10439000F8D131BD5E495F480A78038DC254028D61
:1043A000521C028501205C4A10700122574800F01F
:1043B00047BA5849002229200A85401E83B20022AC
:1043C000CA5482B2002AF8D170472DE9F8438046DA
:1043D0000E46FFF7EEFF05274AA5DFF838911CE0EF
:1043E000012000F077FC4046FFF7C9FF05241E209E
:1043F00000F070FCB9F8280050B12946484600F09A
:104400009BF840B1012E08BFFFF7D3FF00200EE05C
:104410000A2000F05FFC641EE9D13846471EC0B296
:104420000028DDD1012E08BFFFF7C3FF0120BDE842
:10443000F283000010B5FFF797FF0A2000F04AFC56
:10444000344C218D99B1207868B100BF37A1204646
:1044500000F072F820B92CA1204600F06DF810B1E0
:104460002E4901200870FFF7A4FF012010BDFFF7BF
:10447000A0FF002010BD70B529482A4C007818B95B
:1044800008202070142104E0012803D10F2020709F
:104490000E21617000F012F80025234E09E014226D
:1044A000617850433044FFF7C5FF142000F012FC40
:1044B0006D1C2178E8B28842F1D370BDF0B519487F
:1044C000194A4178002311E04FF0140C0CFB03FC57
:1044D000944414F8017C1CF80550EF1904F8017C91
:1044E000761CF5B24F1EBD42EEDB5B1C0478A34286
:1044F00007DA142554185D432C44002604F8016C97
:10450000EFE7F0BD4F4B0000455252002C06002053
:104510002403002070060020400700203F070020F1
:104520003E0700203C0700206403002041542B4339
:104530004F4E3D53544F500070B50D788DB970BD3E
:1045400011F8013F1678B34206D0401C2946FCF70B
:1045500051FE40B10146224612F8013F002BEFD137
:1045600070BD0C46F2E770BD80B50B48016841F4A0
:1045700000710160026842F480620260016841F4E7
:10458000807101600320FFF7DEFC002000F024FEB4
:1045900000F042FE002002BD003C024038B586B06B
:1045A00001A81421FEF7D4F900242748274D0094D0
:1045B0000168274C41F080010160026802F080022E
:1045C0000092002200990092036843F00103036007
:1045D000016801F00101009100990092036843F025
:1045E00008030360016801F008010091009900923E
:1045F0004FF41061036843F002030360006800F0A9
:104600000200009000982046FFF7D8F800220F2102
:104610002846FFF7D3F84FF4106100F01BF820464E
:10462000FEF7E8FF4FF480500021019002910391C2
:10463000204601A9FEF7DEFF0F2100F00BF8284607
:10464000FEF7D8FF07B030BD30380240000C024002
:104650000000024001910122002103910491029285
:1046600001A9704780B52848284901604FF4E1321C
:1046700000230C2142608360C36003614161836158
:10468000C36100F049F818B1BDE80140FFF74CBC28
:1046900001BD38B586B0044601A81421FEF758F9CB
:1046A00024681A4DAC422DD10020009000221848F9
:1046B000416941F010014161416901F0100100912F
:1046C000009900924FF4C061036843F00103036056
:1046D0000222006800F00100009000980D4801914E
:1046E000029200210391032207210591049201A95E
:1046F000FEF780FF002203212520FFF731FC252053
:10470000FFF74BFC07B030BD2C0600200010014025
:10471000303802400000024038B5040001D10120C9
:1047200032BD00F026F808B900F014F800F017F8D0
:1047300000F023F8FFE7416100F001F832BD206886
:10474000C16841F40051C160002068602021697097
:10475000A9707047002129702046FFF79ABF2420D6
:1047600068702068C16821F40051C160204600F0E3
:104770004DBA04F13C05687870472068016921F45E
:10478000904101612068416921F02A0170472DE9BB
:10479000F843054605F13C060C467078202817467C
:1047A000994642D10CB1380001D101203EE0307869
:1047B00001283AD0012131700020706021227270EE
:1047C000FFF73EFAAF848046EF84A868B0F5805FBB
:1047D00004BF286900280EBF274620460027002175
:1047E000317004460EE014F8012B426007E028689F
:1047F000002CF8D137F8021BC1F308014160E88CA6
:10480000411EE9844346E88CCDF8009000280FD083
:1048100000228021284600F042F90028E7D003203A
:1048200004E020207070002000E00220BDE8F28348
:1048300000224021284600F032F90028F1D0EEE7AE
:1048400038B500F130039C7B202C0FD109B1140046
:1048500001D1012032BD1C7B012C07D001241C7327
:1048600000251D60BDE8384000F04BB9022032BD84
:104870000020206310BDC1602068416949084900DB
:1048800041617047416921F040014161A06B70476F
:104890007CB5044622681168D568536911F00F0091
:1048A00007D188065FD5AB065DD52046BDE87640CA
:1048B00060E1D80702D415F4907F54D0C80705D51D
:1048C000EA0503D5206C40F001002064480705D5B7
:1048D000DA0703D5206C40F002002064880705D574
:1048E000DA0703D5206C40F004002064080707D5E0
:1048F000AA0601D4D80703D5226C42F0080222642C
:10490000206C00282ED0880604D5A90644BF204676
:1049100000F030F920684069216C0A0701D4400694
:104920001BD5204600F008F9206841694A060FD5DA
:10493000FFF7A8FF60B10FF231210165A06B00F015
:10494000CBFC00280ED0A06B016DBDE87C40084771
:104950002046BDE8764000F0D6BC204600F0D3FCEF
:104960000020206473BD206B012804F13D0354D165
:10497000C80652D5EE0650D5002100911568009565
:104980005168009100985169480625D5A16B0868C7
:10499000406880B200287BD0A58DA84278DAE085F7
:1049A000C869B0F5807F13D0D06820F48070D060E3
:1049B000FFF762FF2068416921F04001416120203A
:1049C00058700021216300F064F8A06B00F040FCF7
:1049D000A18DE08D091A1AE0A08DE18D411AE08DBC
:1049E00000281CBF88B2002852D0D06820F49070F4
:1049F000D0602068426952085200426120205870FD
:104A0000002222632068C26822F01002C2602046A1
:104A1000BDE87C4089B200F077BC080629D52E0697
:104A200027D51878212833D1A068B0F5805F04BF5E
:104A30002069002808D1206A0188C1F3080151606B
:104A4000206A811C216204E0206A411C21620078F6
:104A50005060E08C401EE08480B2C8B92068C16814
:104A600021F08001C1602068C16841F04001C1604F
:104A700073BD48060CD569060AD5D06820F0400001
:104A8000D060202119702046BDE8764000F03DBC82
:104A900073BD2068C16821F01001C16070472DE925
:104AA000F041069C05460E4690461F462868016860
:104AB0003140B1420CBF01200020404517D114F114
:104AC000010FF3D024B1FFF7BBF8C01B8442EDD235
:104AD0002868C16821F4D07100F00CF805F13C00A1
:104AE00020214170817000210170032000E000202E
:104AF000BDE8F081C1602868416949084900416109
:104B0000704781628285C28500F13C0100224A60C3
:104B100022238B700A700168CB6843F48073CB60EA
:104B200001684A6942F001024A610068C16841F0C7
:104B30002001C160002070470168CA6822F49072A9
:104B4000CA6001684A69520852004A61016B012932
:104B500004D10168CA6822F01002CA60202180F8DE
:104B60003E10002202637047806B0021C185C18422
:104B700000F0C9BB10B5044694F83E00222843D18A
:104B8000A068A16AB0F5805F0AD1206968B922687F
:104B90005068C0F308000880A16A881CA0620FE07A
:104BA000002804BF2069002802D12268506803E071
:104BB0002068406800F07F000870A06A411CA16274
:104BC000E08D401EE08580B2E0B92068C16821F028
:104BD0002001C1602068C16821F48071FFF74BFE9D
:104BE000202084F83E00216B012906D1FFF751FFF8
:104BF0002046A18D00F088FB02E02046FFF7CAFBAB
:104C0000FFF736BE002010BD022010BD70B504466F
:104C100022681169E06821F4405101431161D368B1
:104C20002648A168034020690B4361690343E0699A
:104C30000B430343D3605169A06921F440710143E0
:104C400051611F498A421CBF1E48824202D100F0B6
:104C50007BFA01E000F070FA62682568E469642676
:104C60001921B4F5004FA1FB000112D1D30F52005E
:104C7000FCF7BCFB00F028F8F60032366420B6FBE7
:104C8000F0F0420002F4F87202EB011200F00700AB
:104C900010E0930F9200FCF7A9FB00F015F8360125
:104CA00032366420B6FBF0F000F0F00202EB0112A5
:104CB00000F00F008018A86070BD0000F369FFFFCE
:104CC00000100140001401406421B0FBF1F106FB2B
:104CD0001106704738B50446FEF7B2FF14F1010F14
:104CE000054602D0044801786418FEF7A9FF401B6E
:104CF000A042FAD331BD00BFF80400202DE9F843EB
:104D0000040016D02078DFF81463C10713D5B0680B
:104D100000F00C00042807D0B06800F00C00082850
:104D20003ED1706841023BD53068810303D560688D
:104D3000002800F005812078B94F810719D5B068A7
:104D400010F00C0F07D0B06800F00C0008285CD100
:104D50007068410259D43068810703D5E0680128A2
:104D600040F0EE803168206921F0F80141EAC0018D
:104D70003160217808076CD56069AA49002862D0A3
:104D800001220A60FEF75CFF0546706F810700F1A3
:104D9000D980FEF755FF401B0228F6D903203AE1DF
:104DA0006068B0F5803F04D1306840F480303060F6
:104DB00011E0B0F5A02F306806D140F480203060BB
:104DC000316841F4803105E020F480303060316892
:104DD00021F480213160606858B1FEF731FF05464B
:104DE00030688103A7D4FEF72BFF401B6528F7D35B
:104DF000D4E7FEF725FF0546306881039BD5FEF713
:104E00001FFF401B6528F7D3C8E7E06870B1012198
:104E10003960FEF715FF05463068810700F1BE8056
:104E2000FEF70EFF401B0228F6D9B7E73860FEF701
:104E300007FF0546316888079BD5FEF701FF401B39
:104E40000228F7D9AAE70860FEF7FAFE0546706F58
:104E5000810777D5FEF7F4FE401B0228F7D99DE7BE
:104E60000528306F06D140F004003067306F40F005
:104E7000010005E0400840003067306F20F004007A
:104E8000306741F28938A06868B1FEF7D9FE8146E3
:104E9000306F810700F18F80FEF7D2FEA0EB090092
:104EA0004045F5D37AE7FEF7CBFE8146306F8107A8
:104EB00040F18180FEF7C4FEA0EB09004045F5D328
:104EC0006CE7FEF7BDFE401B022840F2878065E7D5
:104ED000FEF7B6FE001B022840F298805EE7002035
:104EE0003866FEF7ADFE04463068810140F19280DD
:104EF000FEF7A6FE001B0228F6D94FE701281FD0B7
:104F00007068E26900F48001914202BF00F03F0145
:104F1000226A914201BF47F6C0710140626AB1EB5B
:104F2000821F0DD1A26A520800F44031521EB1EB2B
:104F3000024F02BF00F07060E16AB0EB016F69D010
:104F4000012068E0207841073AD5306C0025C10087
:104F50000AD400950125316C41F080513164306CE8
:104F600000F0805000900098DFF8BC80D8F8000076
:104F7000C1051BD4D8F8000040F48070C8F80000C8
:104F8000FEF75EFE8146D8F80000C1050ED4FEF79C
:104F900057FEA0EB09000228F5D9FFE63068216929
:104FA00020F0F80040EAC1003060E2E6A068012885
:104FB0007FF456AF5AE71DB1306C20F0805030645A
:104FC000A06938B3B16801F00C01082996D0022815
:104FD00085D100203866FEF733FE05463068810132
:104FE0003FF56FAFE269206A616A0243A06A400838
:104FF00042EA8112401E42EA0042E06A42EA00624E
:10500000726001213966FEF71BFE0446306881019B
:105010007FF55EAF0020BDE8F28300BF003802409C
:1050200000004742800E4742007000402DE9F041E9
:1050300004000F4678D0494E306800F00700B842AF
:1050400002D200F073F86FD12068454D810712D568
:10505000400703D5A96841F4E051A9602078010711
:1050600003D5A86840F46040A860A968A06821F052
:10507000F0010143A9602178C8074DD56068012877
:1050800002D129688A0305E0022818BF032803D14A
:1050900029688A0103D447E029688A0744D5A968AA
:1050A000890840EA8100A860FEF7CAFD8046A8682A
:1050B000616800F00C00B0EB810F2DD0FEF7C0FD51
:1050C000A0EB080041F289318842F0D3032021E0AF
:1050D0002078410705D5AA68E06822F4E05202432F
:1050E000AA602178080706D5A968206921F46041E3
:1050F00041EAC001A96000F03FF8AA6819491A4BBB
:10510000C2F30312895CC84018601848006800F0B8
:1051100063F80020BDE8F081306800F007008742A6
:10512000D6D200F003F8D3D00120F3E7377031680E
:1051300001F00701B94270470B480D4A0068136837
:105140000C49C3F3822206E00748094A0068136845
:105150000849C3F34232895CC8407047003C0240B2
:1051600000380240CC530008040500200005002050
:10517000083802402C54000830B5144C606800F028
:105180000C00042802D0082802D01DE0104830BDD1
:10519000226820680023410202F03F0204D52568FE
:1051A0000B49C5F3881003E020680A49C0F3881052
:1051B000A1FB0001FCF71AF92168C1F30141491C68
:1051C0004900B0FBF1F030BD024830BD0438024068
:1051D00000127A000024F40038B50D4D0D4B2A78EA
:1051E00004464FF47A711868B1FBF2F2B0FBF2F0AA
:1051F000FEF7DEFE50B9102C08D2002221464FF0F7
:10520000FF30FEF7ADFEAC60002032BD012032BDA4
:10521000F80400200405002081B000200090002246
:105220000A48416841F480414160416801F480418D
:10523000009100990092036843F080530360006876
:1052400000F080500090009801B070474038024054
:10525000F8B5064606F13404656AFEF7F1FC074628
:105260006078022805D08021216200202070012072
:10527000F2BD3068016821F01601016030684169B3
:1052800021F080014161E068002804BF60690028C6
:1052900002D0306800F032F83068016849084900EF
:1052A000016030680168CA070CD5FEF7C9FCC01B55
:1052B0000628F6D32020206200212170032262708C
:1052C0000320F2BDA06A3F218140A9600122002194
:1052D000217062700020F2BD90F83510022903D0D1
:1052E0008022426501207047052180F83510006852
:1052F000026852085200026000207047016821F0E5
:10530000080101607047704770477047FEE7FEE78D
:10531000FEE7FEE7FEE770477047704700F010B801
:105320000448FDF760BD0448FFF7B2BA0348FDF733
:105330005ABD0000C40600202C060020EC06002008
:105340000248416802788A1842607047F8040020D9
:1053500010B5074979441831064C7C44163404E0F2
:105360000A68081D114488470146A142F8D110BDC2
:105370002C000000480000004EF68851CEF20001DB
:10538000086840F470000860BFF34F8FBFF36F8F61
:105390004FF00070E1EE100A704700006FBEFFFF93
:1053A000BC010000880500200000000057BDFFFF81
:1053B000C2010000640100000000002002480168F2
:1053C00041F470010160704788ED00E000000000CA
:1053D00000000000010203040607080900F00DF8B0
:1053E000002801D0FFF7B4FFAFF300800020AFF337
:1053F0000080FEF7A7FC00F002F80120704700F0E3
:1054000001B8000007463846FCF782FDFBE70000C4
:105410000148804701480047BD5300082154000857
:10542000AFF30080FFF7A8FFFFF7D8FF00000000F0
:105430000102030400002E004300FFF7FEBFFFF748
:10544000FEBFFFF7FEBFFFF7FEBFFFF7FEBFFFF790
:10545000FEBFFFF7FEBFFFF7FEBFFFF7FEBFFFF780
:10546000FEBFFFF7FEBFFFF7FEBFFFF7FEBFFFF770
:10547000FEBFFFF7FEBFFFF7FEBFFFF7FEBFFFF760
:10548000FEBFFFF7FEBFFFF7FEBFFFF7FEBFFFF750
:10549000FEBFFFF7FEBFFFF7FEBFFFF7FEBFFFF740
:1054A000FEBFFFF7FEBFFFF7FEBFFFF7FEBFFFF730
:1054B000FEBFFFF7FEBFFFF7FEBFFFF7FEBFFFF720
:1054C000FEBFFFF7FEBFFFF7FEBFFFF7FEBFFFF710
:1054D000FEBFFFF7FEBFFFF7FEBFFFF7FEBFFFF700
:1054E000FEBFFFF7FEBFFFF7FEBFFFF7FEBFFFF7F0
:1054F000FEBFFFF7FEBFFFF7FEBFFFF7FEBFFFF7E0
:10550000FEBFFFF7FEBFFFF7FEBFFFF7FEBFFFF7CF
:10551000FEBFFFF7FEBFFFF7FEBFFFF7FEBFFFF7BF
:10552000FEBFFFF7FEBFFFF7FEBFFFF7FEBFFFF7AF
:10553000FEBFFFF7FEBFFFF7FEBFFFF7FEBFFFF79F
:10554000FEBFFFF7FEBFFFF7FEBFFFF7FEBFFFF78F
:10555000FEBFFFF7FEBFFFF7FEBFFFF7FEBFFFF77F
:10556000FEBFFFF7FEBFFFF7FEBFFFF7FEBFFFF76F
:10557000FEBF120001200E56494E3A583131564DA9
:10558000534C453358314D14100B454355582D4855
:10559000573A56312E335307F00237332E3000017D
:1055A000F003FFFC0200200001F1FF01F15201FABB
:1055B0001A0785200E41542B5359535F53544154BD
:1055C000453D3F0D0A3B111410144144565F4D46B2
:1055D000525F5350433D34323443343535463446BC
:1055E0000A123408F004FF3135310D0A0001F1755B
:1055F00001560198221008F0050724F400345400E5
:10560000080452FF01F200361410010000380C218A
:105610004CFF190805D4042002CD1200082C43BB0E
:04562000123C210116
:04000005080054217A
:00000001FF
