:020000040800F2
:10000000E04D002031030008D32900083127000803
:10001000D129000839090008C92E00080000000095
:100020000000000000000000000000007102000855
:10003000810A000800000000CD020008E92900083C
:100040004B0300084B0300084B0300084B03000858
:100050004B0300084B0300084B0300084B03000848
:100060004B0300084B0300084B0300084B03000838
:100070004B0300084B0300084B0300084B03000828
:100080004B0300084B0300084B0300084B03000818
:100090003D0900084B0300084B0300084B03000810
:1000A0004B030008B92A00084B0300084B03000863
:1000B0004B0300084B0300084B0300084B030008E8
:1000C0004B0300084B0300084B0300084B030008D8
:1000D0004B030008BD2E00084B0300084B0300082B
:1000E0004B0300084B0300084B0300084B030008B8
:1000F0004B0300084B0300084B0300084B030008A8
:100100004B0300084B0300084B0300084B03000897
:100110004B0300084B0300084B0300084B03000887
:100120004B0300084B0300084B0300084B03000877
:100130004B0300084B0300084B0300084B03000867
:10014000490900084B0300084B0300084B03000853
:100150004B0300084B0300084B0300084B03000847
:100160004B0300084B0300084B0300084B03000837
:100170004B0300084B0300084B030008000000007D
:100180004B0300084B03000800F002F800F061F890
:100190000AA090E8000C82448344AAF10107DA45E2
:1001A00001D100F056F8AFF2090EBAE80F0013F0D3
:1001B000010F18BFFB1A43F0010318478C530000CE
:1001C000AC5300000A444FF0000C10F8013B13F050
:1001D000070408BF10F8014B1D1108BF10F8015BA0
:1001E000641E05D010F8016B641E01F8016BF9D193
:1001F00013F0080F1EBF10F8014BAD1C0C1B09D1EA
:100200006D1E58BF01F801CBFAD505E014F8016B5B
:1002100001F8016B6D1EF9D59142D6D370470000ED
:100220000023002400250026103A28BF78C1FBD8FF
:10023000520728BF30C148BF0B607047642900F0E7
:100240005781002070471FB505F0F6F81FBD10B5A7
:1002500010BD00F00BFB1146FFF7F5FF03F0D8FAD5
:1002600000F029FB03B4FFF7F2FF03BC00F05CFAD7
:100270002C4B19680868B0E8F04F80F30988BFF389
:100280006F8F4FF0000080F311887047000000006E
:1002900008480068006880F308884FF0000080F389
:1002A000148862B661B6BFF34F8FBFF36F8F00DF64
:1002B00000BF00BF08ED00E0DFF80C00016841F46A
:1002C00070010160704700BF88ED00E0EFF3098026
:1002D000BFF36F8F134B1A681EF0100F08BF20ED8D
:1002E000108A20E9F04F106009B44FF0500080F3FD
:1002F0001188BFF34F8FBFF36F8F04F0D5FE4FF01F
:10030000000080F3118809BC19680868B0E8F04F54
:100310001EF0100F08BFB0EC108A80F30988BFF3FD
:100320006F8F7047B8000020EFF305807047000022
:100330000948804709480047FEE7FEE7FEE7FEE779
:10034000FEE7FEE7FEE7FEE7FEE7FEE704480549B5
:10035000054A064B70470000A92A000889010008D9
:10036000E0470020E04D0020E0490020E049002067
:1003700053EA020C00F069802DE9F04B4FF00006C3
:10038000002B1FBFB3FA83F503FA05F424FA05F630
:100390005E4012BF1643B2FA82F502FA05F4C5F1C7
:1003A00020051EBF22FA05FC44EA0C04203556EA5B
:1003B000044C4FEA144418BF641C4FF000084FF07F
:1003C0000009904271EB030C39D3002919BFB1FA2F
:1003D00081F701FA07F6B0FA80F700FA07F6C7F1DD
:1003E00020071EBF20FA07FC46EA0C062037B6FBA2
:1003F000F4FCA7EB0507103F07F01F0BCBF120061D
:100400000CFA0BFB2CFA06F644BFB3460026202F4D
:10041000A4BF5E464FF0000B5BEA060C08BF4FF02E
:10042000010B19EB0B09ABFB027C48EB0608C01B68
:1004300006FB02CC0BFB03CC71EB0C01C1E70B46B6
:10044000024641464846BDE8F08B13B54FF0000028
:100450004FF00001AFF30080BDE81C407047000082
:100460000FB41CB5074B06AA7B446946009005985B
:1004700000F0BFF90020694600F0CEF91CBC5DF821
:1004800014FB0000AD0300002DE9F0410E460446C8
:10049000002020622046E168884730B3252805D037
:1004A000D4E901219047206A401CF2E7E168204628
:1004B00000278847050018D0A5F14100192802D867
:1004C00020354FF400673246294620462760FFF763
:1004D000B5FE40B1012804D0F61D26F00706083607
:1004E000D8E7361DD6E72846DAE7206ABDE8F0816E
:1004F0002DE9F0410646002410687529314616A5FD
:1005000010D0AFF30080002802DA404213A507E0C4
:1005100031688A0701D512A502E0490704D511A563
:10052000012401E0AFF3008000210A2206F1240734
:1005300009E0B0FBF2FCB0FBF2F302FB1C00303030
:1005400078541846491C0028F3D123462A463046E1
:10055000BDE8F04100F0EEB8000000002D00000002
:100560002B0000002000000010B5002000F059F919
:10057000FFF76DFEBDE81040012000F0D5B830B5A2
:1005800005460B462A4613F8014B12F8010B08B139
:10059000A042F8D01CB1002802D06D1CF1E728461B
:1005A00030BD032A40F2308010F0030C00F01580BB
:1005B00011F8013BBCF1020F624498BF11F801CB66
:1005C00000F8013B38BF11F8013BA2F1040298BFCB
:1005D00000F801CB38BF00F8013B11F0030300F035
:1005E0002580083AC0F0088051F8043B083A51F8D9
:1005F00004CBA0E80810F5E7121D5CBF51F8043BDE
:1006000040F8043BAFF30080D20724BF11F8013B50
:1006100011F801CB48BF11F8012B24BF00F8013BB2
:1006200000F801CB48BF00F8012B704710B5203A05
:10063000C0F00B80B1E81850203AA0E81850B1E89B
:100640001850A0E81850BFF4F5AF5FEA027C24BF51
:10065000B1E81850A0E8185044BF18C918C0BDE848
:1006600010405FEA827C24BF51F8043B40F8043B11
:1006700008BF7047D20728BF31F8023B48BF11F8C6
:10068000012B28BF20F8023B48BF00F8012B704720
:100690004FF000020429C0F0128010F0030C00F0AB
:1006A0001B80CCF1040CBCF1020F18BF00F8012B29
:1006B000A8BF20F8022BA1EB0C0100F00DB85FEAF7
:1006C000C17C24BF00F8012B00F8012B48BF00F8C3
:1006D000012B70474FF0000200B513469446964632
:1006E000203922BFA0E80C50A0E80C50B1F1200145
:1006F000BFF4F7AF090728BFA0E80C5048BF0CC0F3
:100700005DF804EB890028BF40F8042B08BF704750
:1007100048BF20F8022B11F0804F18BF00F8012BC2
:10072000704770477047704701491820ABBEFEE71D
:10073000260002002DE9F0470D46994692460446F0
:1007400000F124080168880604D5E06921F0100151
:10075000216000E00120A84201DD471B00E00027E6
:10076000A1697A1902EB0900081AA0612078C00675
:1007700002D42046AFF30080002608E0D4E901212E
:100780001AF806009047206A401C761C20624E45ED
:10079000F4DB2078C0060AD52046AFF3008006E0DF
:1007A000D4E9012130209047206A401C2062381E85
:1007B000A7F10107F4DC07E0D4E9012118F80500EE
:1007C0009047206A401C2062281EA5F10105F3DC39
:1007D0002046AFF300802078000602D50220BDE855
:1007E000F0870120FBE7000001694A1C02610878DC
:1007F000704700B58FB0CDE9013100210591054961
:100800007944CDE9031011466846FFF73DFE0FB06D
:1008100000BD0000E5FFFFFF0A6802F8010B0A6057
:10082000704710B500F00AF8BDE8104000F001B8BC
:100830007047002801D0FFF777BF704710B500213F
:1008400002A000F041F8012010BD000053494741CB
:100850004252543A2041626E6F726D616C20746531
:10086000726D696E6174696F6E000000754600F00C
:100870004BF8AE4605006946534620F00700854612
:1008800018B020B5FFF762FDBDE820404FF000062C
:100890004FF000074FF000084FF0000B21F0070168
:1008A000AC46ACE8C009ACE8C009ACE8C009ACE8AB
:1008B000C0098D46704710B50446AFF3008020464E
:1008C000BDE81040FFF7CEBC70B505460C460A20C7
:1008D00000E06D1C00F011F835B128780028F8D13F
:1008E00002E0641C00F009F814B120780028F8D167
:1008F000BDE870400A20AFF3008008B569468DF866
:1009000000000320ABBE08BD0048704780470020B0
:1009100002F0D0FB074C4FF47A7500BF02F034FBB5
:10092000217809B1491E217003F040FC284603F0EC
:100930008DF9F3E71A000020FEE70000014800F0FF
:100940005CBB0000FC050020014800F056BB000025
:100950002406002010B58AB00020012405900690DE
:1009600002900390049000900190089407940C4822
:1009700000F0ACFD69460A4800F044FA022108483C
:1009800000F0CAF90748059400F0A0FD6946054843
:1009900000F038FA0221034800F0BEF90AB010BD99
:1009A000FC0500202406002002F0B0FB012003F02B
:1009B0004DF9FBE7F8B50E460746052502F0FAFAB1
:1009C00020E0012000F010FE384602F09CFA0024DE
:1009D0001E2000F009FE684602F08EFBBDF80010F4
:1009E00049B10DA1FFF7CBFD40B1012E01D102F0BD
:1009F000E1FA0020F8BD0A2000F0F6FD641CE4B224
:100A0000052CE5D36D1EEDB2DBD2012E01D102F033
:100A1000D1FA0120F8BD00004F4B000038B500228C
:100A2000ADF8002002F064FA0A2000F0DDFD68460F
:100A300002F062FB0446BDF8000090B1207860B17E
:100A40000AA12046FFF79BFD20B90BA12046FFF726
:100A500096FD10B109490120C87002F0ABFA0120DF
:100A600038BD02F0A7FA002038BD000041542B43E6
:100A70004F4E3D53544F50004552520052010020FA
:100A80007047000070B51B49194B642201F16400E6
:100A900002F0BAFC164C40B2E41E0025207020B9CA
:100AA000A570E11C134802F015FF1249104B642297
:100AB00001F1A40002F0A8FC40B2207028B9012086
:100AC000A0700B490B4802F005FFE278002A0DD018
:100AD00009480078012809D1064901F1640002F0B3
:100AE00063FD40B22070002800D1E57070BD0000A9
:100AF0005F010020F44400202201002072B6FEE7CE
:100B0000002229B101291AD002291BD04FF44072CA
:100B10000E490B6823F440730B600B6813430B60A2
:100B20000A6822F0F8020A600A68022303EBC00098
:100B300002430A60086840F48030086070474FF450
:100B40008072E5E74FF40072E2E70000103C0240DB
:100B50001348016889050FD5016821F4007101600F
:100B6000016841F400610160016821F400610160E5
:100B7000016841F400710160016849050FD5016801
:100B800021F480610160016841F4805101600168D5
:100B900021F480510160016841F480610160704777
:100BA000003C024008490A6822F440720A600A6860
:100BB00042F004020A600A684FF4803343EA0020DE
:100BC00002430A6070470000103C0240064A136866
:100BD00023F44073136013681360136843F0010338
:100BE0001360017070470000103C0240094910B5C5
:100BF0000C6824F440740C600C6844F440740C607D
:100C00000C6844F001040C600260BFF36F8F436016
:100C100010BD0000103C0240074A136823F44073E3
:100C20001360136843F480731360136843F0010387
:100C30001360018070470000103C0240074A1368AF
:100C400023F440731360136843F400731360136854
:100C500043F001031360016070470000103C024044
:100C600017490868C206174805D5C26942F0100244
:100C7000C26110220A600A68920605D5C26942F074
:100C80000802C26120220A600A68520605D5C269BC
:100C900042F00402C26140220A600A68120605D5C9
:100CA000C26942F00202C26180220A600A689207A9
:100CB00005D5C26942F02002C26102200860704777
:100CC0000C3C0240D806002070B5114904460020B3
:100CD000C86100F04FFE06460E4D09E0601C07D0CB
:100CE00024B100F047FE801BA04201D9032070BD53
:100CF0002868C003F2D42868C00701D0012028600A
:100D0000286810F0F200F2D0FFF7AAFF012070BDB2
:100D1000D80600200C3C024090F82020012A07D081
:100D2000022A05D0416A41F48021416201207047C6
:100D3000006842690A43426100207047F0B590F8AC
:100D400020500468A468012D05D0022D03D0416A0B
:100D500041F4802153E014F0406F01D1E5004BD500
:100D6000C4F30164022C03D9416A41F4000146E056
:100D70000125A5401D608D684FF4C0739DB1CE68FC
:100D800035434E6845EAC605066803EB0417F5517E
:100D90004FF4C275076805EB04150E697E51097D95
:100DA000012905D009E00E88CD6845EA4655EBE7F4
:100DB00001684E5946F480764E511179D2F80550AB
:100DC0004FF4C67641EA0525016806EB04168D51FD
:100DD0001178D2F801204FF4C47541EA022102686B
:100DE00005EB04155151006803EB0411425842F021
:100DF000010242500020F0BD416A41F400114162FD
:100E00000120F0BD10B590F82020012A07D0022A59
:100E100005D0416A41F480214162012010BD3B4868
:100E2000D0F8002242F00102C0F80022D0F80022DF
:100E300022F47C52C0F80022D0F800224B6A42EA29
:100E40000322C0F800220A7D02F01F0301229A400B
:100E5000D0F81C329343C0F81C32CB69B3B9D0F838
:100E60000C329343C0F80C328C894B6864F31F43F7
:100E70004C6900EBC404C4F840320C890B6864F37D
:100E80001F434C6900EBC404C4F84432CB69012B06
:100E900016D1D0F80C321343C0F80C320C884B68D2
:100EA00064F31F434C6900EBC404C4F840320C895E
:100EB000CB6864F31F434C6900EBC404C4F84432AC
:100EC0008B69002BD0F804320ED01343C0F80432E3
:100ED0000B69002BD0F8143208D01343C0F8143239
:100EE000096A012904D008E09343EFE79343F5E74B
:100EF000D0F81C121143C0F81C12D0F8001221F0D7
:100F00000101C0F80012002010BD00000064004084
:100F1000704730B590F82040012C05D0022C03D04A
:100F2000416A41F480215DE00468002955D02469BC
:100F3000A40754D04FF4D874056804EB01142D595C
:100F400015F00405956005682D594ED0ED085560E3
:100F500005682C5904F00204D4604FF4DA74056873
:100F600004EB01142D5905F00F05156105682D5985
:100F7000C5F30725956105682C59240C54614FF47D
:100F8000DC72046802EB0112A4581C700468A458B7
:100F9000240A5C700468A458240C9C700468A2584D
:100FA000120EDA704FF4DE72046802EB0112A458DC
:100FB0001C710468A458240A5C710468A458240CA9
:100FC0009C710468A258120EDA71006881B101693F
:100FD00041F020010161002030BDE468A8E7416ACA
:100FE00041F400114162012030BD6D0D1560AFE785
:100FF000C16841F02001C160EDE72DE9F05F0546D1
:10100000006800244669D0F804908768D0F80CB0D6
:10101000D0F810A0D0F81880F10748D0F90714D004
:1010200001218160B80703D5284600F07CFA0CE066
:10103000780702D54FF4006407E0380702D54FF473
:10104000805402E0284600F06DFAF80516D52968AC
:101050004FF480708860B80503D5284600F065FA23
:101060000CE0780502D544F4005407E0380502D5B9
:1010700044F4804402E0284600F056FAF80316D5FE
:1010800029684FF480308860B80303D5284600F003
:101090004EFA0CE0780302D544F4004407E038032C
:1010A00002D544F4803402E0284600F03FFA3007CD
:1010B00007D55FEACB6004D52968102044F400749A
:1010C000C86070074FF0080707D55FEA0B7004D5BA
:1010D0002868C760284600F09DF9B00706D5286843
:1010E000C068800702D0284600F096F9700607D540
:1010F0005FEACA6004D52968102044F4806408615E
:10110000B00607D55FEA0A7004D52868076128464B
:1011100000F0D8F9F00606D528680069800702D0EB
:10112000284600F0D0F9B00308D55FEAC96005D5BC
:10113000296810204860284600F0C6F9F00307D55A
:101140005FEA097004D528684760284600F0F0F986
:10115000300446D55FEA497040D5F00504D55FEA12
:10116000C87001D044F00104B00504D55FEA88706E
:1011700001D544F00204700504D55FEA487001D53A
:1011800044F00404300529D518F0700F26D008F07B
:101190007000402815D006DC102809D020280AD07D
:1011A000302816D10AE050280ED0602811D10EE068
:1011B00044F008040DE044F010040AE044F0200478
:1011C00007E044F0400404E044F0800401E044F40B
:1011D00080742868816921F0700181612968042088
:1011E0004860002C05D0686A204368622846FFF7F3
:1011F0008FFEBDE8F09F70B5040003D094F8200086
:1012000010B104E0012070BD204600F081F8206894
:10121000016841F00101016000F0ACFB05460526C4
:1012200004E000F0A7FB401B0A2811D820684068A2
:10123000C007F6D02068016821F00201016000F0CB
:1012400099FB05460BE000F095FB401B0A2806D9E8
:10125000606A40F40030606284F82060D2E7206861
:1012600040688007EFD4207E0128206801683DD0C7
:1012700021F080010160607E01282068016838D07B
:1012800021F040010160A07E01282068016833D070
:1012900021F020010160E07E0128206801682ED045
:1012A00041F010010160207F01282068016829D0E9
:1012B00021F008010160607F01282068016824D0C6
:1012C00021F004010160D4E902010843D4E90412C9
:1012D000114308436168491E08432168C861002022
:1012E0006062012084F82000002070BD41F0800180
:1012F000C0E741F04001C5E741F02001CAE721F015
:101300001001CFE741F00801D4E741F00401D9E72B
:101310002DE9F04387B0044614216846FFF7DAF957
:10132000384B3948DFF8D880996CD4F800C0364A79
:10133000022503260927DFF8D49010300024491C29
:10134000C44524D19964012907D1016841F0007195
:101350000160006800F000700590106840F0020025
:101360001060106802AB00F0020005904FF440706E
:10137000CDE9000583E8D0006946484600F0F0F961
:1013800000220621142000F081FB142032E0DFF857
:101390008080C44530D1D0F800C04CF0806CC0F8DB
:1013A00000C0D0F800C001290CF0806CCDF814C04A
:1013B000996407D1016841F000710160006800F094
:1013C00000700590106840F002001060106802ABD9
:1013D00000F0020005906020CDE9000583E8D00010
:1013E0006946484600F0BCF900220621402000F082
:1013F0004DFB402000F03CFB07B0BDE8F08300004F
:101400000064004014000020303802400004024014
:1014100000680040704700002DE9F0410746264B68
:10142000264A0021FFF775FD244D234C2249143C28
:101430002868A060288AA080284603F01DFB02F0DF
:1014400035FF40F2DF71A0681D4E4A1C884201D072
:1014500090421DD105236370904204D11748227930
:101460001549803005E0884205D114482279124997
:10147000C03001F07FFE10492761A28801F1080009
:10148000FFF7D4F83046BDE8F041102100F060BA13
:101490002868B0F5C27F02D0B0F5C37F0AD1012120
:1014A000304600F055FA2A7C2868BDE8F041024930
:1014B00002F062BBBDE8F08170010020D84400203A
:1014C00000040240704770477047000070B5044642
:1014D00090F82000012804D0606A40F40020606287
:1014E00018E0022084F820002068016821F0010142
:1014F000016000F03FFA05460EE000BF00F03AFA46
:10150000401B0A2808D9606A40F400306062052058
:1015100084F82000012070BD20684068C007EDD12C
:10152000606270BD70477047704770477047704782
:1015300070472DE9F0410446876D00F01BFA06461E
:1015400094F835000025022806D08020606584F8D4
:1015500034500120BDE8F0812068016821F01601B7
:1015600001602068416921F080014161206C08B967
:10157000A06C20B12068016821F00801016020689A
:10158000016821F0010101600CE000F0F3F9801B1B
:10159000052807D920206065032084F8350084F8E9
:1015A0003450D7E720680068C007EED194F85C108B
:1015B0003F208840B860012084F8350084F834501A
:1015C0000020C7E790F83510022903D0802141653B
:1015D00001207047052180F835100068016821F06E
:1015E000010101600020704770B5044600F0C2F9A7
:1015F0000546601C02D004480078044400F0BAF9A3
:10160000401BA042FAD370BDA80000202DE9F0478E
:10161000044622480F46017E01290AD00121804656
:1016200001764CF250394846FFF74EFB020003D0DA
:101630002FE00220BDE8F0874FF0FF3038602068CF
:10164000174D012801D0A6681CE0207C6168FFF7D7
:10165000A9FA4846FFF738FB0246286820F0040044
:10166000286014E0217C3046FFF74AFA4846FFF72D
:101670002BFB0200286820F0FA00286001D03E60B1
:1016800005E0761CD4E902100844B042EAD8FFF71E
:101690005FFA002188F818101046CBE7D806002022
:1016A000103C02400348016841F000410160002005
:1016B00070470000103C02402DE9F0471B4E0546E4
:1016C0001446307E1F468946012808D00120307616
:1016D0004CF250384046FFF7F7FA18B114E00220F8
:1016E000BDE8F0879DB1012D16D0022D19D02246FC
:1016F0003B464846FFF77AFA4046FFF7E5FA0C49C1
:101700000A6822F001020A6000213176E8E7E1B2BE
:101710004846FFF75BFAEFE7A1B24846FFF77CFACD
:10172000EAE721464846FFF789FAE5E7D8060020B0
:10173000103C0240074900200A68002A09DA054ADD
:10174000054B0C3A1360054B13600968002900DA59
:1017500001207047103C024023016745AB89EFCD63
:101760002DE9F84FDFF8BCA1002201250AF1040B96
:1017700003264FF00F090BF1040E00BF0B6805FAAA
:1017800002F42340A34270D10F7907F00307012F21
:1017900001D0022F16D187684FEA420806FA08FCEA
:1017A00027EA0C07D1F80CC00CFA08FC4CEA070C2D
:1017B000C0F808C04768A7430C79C4F300149440EC
:1017C0003C4344600C79E443A4070AD0C4684FEA60
:1017D000420C06FA0CF7BC438F6807FA0CF7274354
:1017E000C7600C7904F00304022C12D1D40800EB7A
:1017F000840CDCF820405707FF0E09FA07F824EAAA
:101800000804D1F8108008FA07F848EA0408CCF870
:10181000208004684FEA420C06FA0CF7BC430F79AB
:1018200007F0030707FA0CF7274307604C6814F426
:10183000403F70D03C4C276847F4804727602468BD
:1018400022F0030704F480440094384C07EB040CA6
:10185000DCF8084897074FEA177809FA08F7BC43FD
:10186000334FB84202D1002724E054E0314FB84250
:1018700001D101271EE0304FB84201D1022719E003
:101880002E4FB84201D1032714E02D4FB84201D1A9
:1018900004270FE02B4FB84201D105270AE02A4F59
:1018A000B84201D1062705E0284FB84201D10727E9
:1018B00000E0082707FA08F72743CCF80878DAF899
:1018C00000405746D1F804C09C435FEACC3C00D5A9
:1018D0001C433C60DBF800405F46D1F804C09C43E9
:1018E0005FEA8C3C00D51C433C60DEF80040774644
:1018F000D1F804C09C435FEACC2C00D51C433C606B
:10190000084F0C373C68D1F804C09C435FEA8C2C2C
:1019100000D51C433C60521C102AFFF42FAFBDE8D9
:10192000F88F0000003C0140443802400030014084
:10193000000002400004024000080240000C024087
:10194000001002400014024000180240001C024037
:101950000069084000D001207047426921EA020373
:101960000A4043EA0241816170470AB181617047D0
:101970000904FBE70148806870470000A8000020C8
:10198000024881680278114481607047A8000020F5
:101990000B4810B5016841F400710160016841F421
:1019A00080610160016841F480710160032000F0F2
:1019B0008DF80F2000F006F800F03EF8002010BD72
:1019C000003C024010B5014688B00022192000F00A
:1019D0005DF8192000F04CF813480024016841F02C
:1019E00001010160006805A900F001000690684649
:1019F00000F018F900F046F90C494000B0FBF1F195
:101A00000C480B4A491E026040F2E732C0E9032449
:101A1000C0E9011400F02EFB10B1012008B010BD88
:101A2000044800F055FBF9E74438024040420F00FB
:101A300000000140900600200C4882B0016841F48B
:101A400080410160006800F4804000900748001F5A
:101A5000016841F0805101600068002200F0805070
:101A600000900F21901E02B000F010B844380240E0
:101A7000002809DB00F01F0201219140400980008D
:101A800000F1E020C0F8001170470000F0B40E4BE8
:101A90001B680C46C3F30223C3F10705042D00D9CC
:101AA0000425191D072901D2002300E0DB1E0126B1
:101AB00006FA05F1491E214099409E40761E1640C7
:101AC0003143F0BC01F02ABA0CED00E0064900F009
:101AD000070208684FF6FF03184040EA0220034A55
:101AE00010430860704700000CED00E00000FA05AC
:101AF0002DE9F0470E46050065D0DFF81481D8F8CF
:101B00000000F7B200F00700B04207D288F800707A
:101B1000D8F8000000F00700B04254D128683D4CCE
:101B2000810712D5400703D5206840F4E0502060BB
:101B30002878000703D5206840F4604020602068C2
:101B4000A96820F0F000084320602878C0072DD055
:101B5000304968680839012812D0022813D00328B8
:101B600011D00968890700292DDA216821F00301C5
:101B700001432160FFF7FEFE814641F2883A0EE004
:101B800009688903EFE709688901ECE7FFF7F2FECE
:101B9000A0EB0901514502D90320BDE8F087206878
:101BA000696800F00C00B0EB810FEFD1D8F800109D
:101BB000404601F00701B14207D90770006800F004
:101BC0000700B04201D00120E7E72878400705D59B
:101BD0002068E96820F4E050084320602878000776
:101BE00006D52068296920F4604040EAC1002060E1
:101BF00000F058F82168084AC1F30311515CC8404D
:101C00000649086006480068FFF7DCFE0020C4E7CC
:101C1000003C024008380240B4540008B4000020E0
:101C2000AC0000200F2202600C4A136803F003038B
:101C30004360136803F0F0038360136803F4E05318
:101C4000C36012684FF4E05303EAD2020261044811
:101C5000006800F007000860704700000838024084
:101C6000003C02400448054900680968044AC1F381
:101C70008221515CC8407047B400002008380240FF
:101C8000C45400080448054900680968044AC1F3BF
:101C90004231515CC8407047B4000020083802400F
:101CA000C4540008154810B5006810F00C02144820
:101CB00013D04110042A0FD0082A0ED10F4C241F34
:101CC0002268236802F03F025B0207D52068C0F358
:101CD0008810A0FB010106E0084610BD2168C1F391
:101CE0008811A1FB00010023FEF742FB2168C1F32C
:101CF0000141491C4900B0FBF1F010BD0838024019
:101D00000024F4002DE9F84F04006ED02078DFF8AD
:101D10004C93C007A9F104054AD009F104000168F9
:101D2000C1F38101012908D00068C0F381000228B5
:101D30000AD1D9F80000400206D52868800337D5BB
:101D400060680028E1D033E06068B0F5803F10D0D3
:101D5000B0F5A02F286810D020F4803028602868C3
:101D600020F4802028606068A8B1FFF703FE0646D3
:101D70000DE0286840F48030F4E740F480202860CB
:101D8000F7E700BFFFF7F6FD801B642873D82868CB
:101D90008003F7D50CE0FFF7EDFD064605E000BF38
:101DA000FFF7E8FD801B6428F0D828688003F7D48B
:101DB0002078DFF8AC8280074FF0000A3ED5A748B4
:101DC000001D016811F00C0F08D00068C0F38100FD
:101DD00002280BD1D9F80000400207D428688007F8
:101DE00016D5E068012800D112E033E1E068B8B10F
:101DF0000120C8F80000FFF7BDFD064605E000BF62
:101E0000FFF7B8FD801B0228C0D828688007F7D5E7
:101E10002868216920F0F80040EAC10028600DE040
:101E2000C8F800A0FFF7A6FD064604E0FFF7A2FDF4
:101E3000801B02281FD828688007F7D42078000765
:101E400022D5864F87486169703771B101210160E1
:101E5000FFF790FD064604E0FFF78CFD801B02288B
:101E600009D838688007F7D50EE0C0F800A0FFF762
:101E700081FD064605E082E0FFF77CFD801B02281D
:101E80007DD838688007F7D42078400768D5DFF818
:101E9000CCB100270BF13C0BDBF80000C0000BD4E9
:101EA000DBF8001041F08051CBF80010DBF80000A7
:101EB000012700F0805000906B4E3068C00510D4B0
:101EC000306840F480703060FFF754FD009005E00A
:101ED000FFF750FD0099401A022850D83068C0051D
:101EE000F6D55E4EA0686C3601280FD00528306804
:101EF00010D020F001003060306820F00400306025
:101F0000A068B8B1FFF736FD00900FE0306840F0F0
:101F10000100F4E740F004003060F7E7FFF72AFD26
:101F20000099411A41F28830814266D830688007B2
:101F3000F4D50EE0FFF71EFD009007E0FFF71AFD55
:101F40000099411A41F28830814256D830688007A2
:101F5000F4D42FB1DBF8001021F08051CBF8001041
:101F6000A069C8B33D49091D0968C1F3810102296F
:101F70004AD00228504607D0C8F8600000E03CE094
:101F8000FFF7F8FC04463BE04746C8F86000FFF75F
:101F9000F1FC064605E000BFFFF7ECFC801B0228C1
:101FA0002BD828688001F7D4D4E907010843A16A37
:101FB0002E4A490802EB0141626A41EA8211084354
:101FC00094F82C1040EA0161C9F80010012038662D
:101FD000FFF7D0FC044606E03EE000BFFFF7CAFC76
:101FE000001B022809D828688001F7D534E000BF1B
:101FF000FFF7C0FC001B022802D90320BDE8F88FC0
:1020000028688001F4D427E00128F7D0D9F800002F
:10201000E26900F4800191421CD1226A00F03F0184
:10202000914217D147F6C071626A0140B1EB821F3D
:1020300010D1A26A4FF0FF3300F4403103EB52029B
:10204000B1EB024F06D194F82C1000F07060B0EBA9
:10205000016F01D00120D1E70020CFE70438024012
:1020600000004742800E4742007000400000FFFF22
:102070007047704710B5040003D094F83D0010B1CC
:1020800007E0012010BD002084F83C00204600F04D
:102090001EF8022084F83D00211D206800F012FD8A
:1020A000012084F8460084F83E0084F83F0084F85C
:1020B000400084F8410084F8420084F8430084F82A
:1020C000440084F8450084F83D00002010BD7047AE
:1020D00090F83D10012901D001207047022180F8BD
:1020E0003D100168CA6842F00102CA6000681149E7
:1020F000884214D0B0F1804F11D00F4988420ED0E1
:102100000E4988420BD00E49884208D00D498842BA
:1021100005D00D49884202D00C49884204D181681B
:1021200001F00701062903D0016841F001010160B7
:1021300000207047000001400004004000080040FB
:10214000000C004000040140004001400018004025
:10215000704770B50446006801694FF00005C94337
:10216000890715D4C168C943890711D4E91E0161E3
:1021700001202077206880698007204602D0FFF781
:10218000E7FF04E000F098F8204600F096F8257785
:1021900020680169C943490717D4C168C943490781
:1021A00013D46FF004010161022020772068806958
:1021B00010F4407F204602D0FFF7CAFF04E000F091
:1021C0007BF8204600F079F8257720680169C9433B
:1021D000090716D4C168C943090712D46FF0080172
:1021E0000161042020772068C0698007204602D062
:1021F000FFF7AEFF04E000F05FF8204600F05DF866
:10220000257720680169C943C90617D4C168C94345
:10221000C90613D46FF010010161082020772068EF
:10222000C06910F4407F204602D0FFF791FF04E020
:1022300000F042F8204600F040F825772068016958
:10224000C943C90708D1C168C943C90704D1891E58
:102250000161204600F032F820680169C94309068F
:1022600009D4C168C943090605D46FF08001016132
:102270002046FFF7FDFE20680169C943490609D4DD
:10228000C168C943490605D46FF040010161204689
:1022900000F01EF820680169C94389060BD4C168A3
:1022A000C943890607D46FF0200101612046BDE8CB
:1022B0007040FFF7DEBE70BD70477047006803498D
:1022C000884201D1FFF75CBB70470000000001406D
:1022D0007047704770470000F8B501680446086809
:1022E000CA684B6910F00F0F4FF0000559D003F08A
:1022F000010602F49077374365D0C10705D0D105B8
:1023000003D5216C41F001012164410705D5D907AE
:1023100003D0216C41F002012164810705D5D90762
:1023200003D0216C41F004012164010707D502F0BC
:102330002001314303D0216C41F008012164216C5C
:1023400000293AD0800604D5900602D5204600F038
:1023500076FC20684069216CC0F38010090700D426
:1023600060B3204600F044FC20684069400621D557
:102370002068143050E8001F21F0400140E80012AE
:10238000002AF5D1A06BA8B16C490165A06BFFF7DD
:1023900019F9002811D0A06B016D01B0BDE8F04023
:1023A000084783060FD593060DD52046BDE8F840B3
:1023B00000F045BC2046FFF78DFFF8BD2046FFF733
:1023C00089FF2564F8BD266B2023012E79D1C6062E
:1023D00077D5D60675D508684868009048694006E4
:1023E00040D5A16B086840680004000CEAD0A28DBB
:1023F0008242E7D9E085C869B0F5807F2DD020689A
:102400000C3050E8001F21F4807140E80012002ACF
:10241000F5D12068143050E8001F21F0010140E898
:102420000012002AF5D12068143050E8001F21F076
:10243000400140E80012002AF5D184F83E302563BF
:1024400020680C3050E8001F21F0100140E8001215
:10245000002AF5D1A06BFFF76CF8A08DE18D401A32
:1024600081B229E0A08DE18D401A81B2E08D002873
:10247000A8D00029A6D020680C3050E8002F22F404
:10248000907240E80026002EF5D12068143050E804
:10249000002F22F0010240E80026002EF5D184F83A
:1024A0003E30256320680C3050E8002F22F01002E7
:1024B00040E80023002BF5D12046FFF70AFFF8BDC6
:1024C000FFE705062BD5150629D594F83D002128F0
:1024D000F5D1A068B0F5805F01D12069B0B1206A64
:1024E000411C2162216800784860E08C401E000495
:1024F000000CE084E3D12068C16821F08001C16054
:102500002068C16841F04001C160D8E7206A0088B6
:10251000C0F308004860206A801C2062E5E740069E
:10252000CDD55006CBD5CA68204622F04002CA60FD
:1025300084F83D3000F0FBF8C1E70000E12B000813
:1025400070B5040004D094F83D00002510B106E0F9
:10255000012070BD84F83C50204600F023F8242070
:1025600084F83D002068C16821F40051C160204614
:1025700000F0C6FB2068016921F4904101612068E8
:10258000416921F02A0141612068C16841F400518C
:10259000C1602564202084F83D0084F83E000020BE
:1025A00070BD000010B586B0044614216846FEF7E1
:1025B00091F818492068884229D1174800210268FB
:1025C00042F010020260006800F01000059012480E
:1025D0001438026842F001020260006800F0010055
:1025E00005904FF4C06000900220CDE90101032066
:1025F00003900720049069460848FFF7B1F80022CD
:1026000005212520FFF742FA2520FFF731FA06B011
:1026100010BD00000010014044380240000002409C
:1026200090F83E30202B0ED159B152B190F83C3089
:10263000012B08D0012380F83C300023036300F015
:10264000E5BB012070470220704700000748084A98
:10265000017808488388D1548188491C81800121F0
:1026600081700A4601490448FFF7DABF6D00002077
:10267000B0440020520100204C0600202DE9F84310
:10268000044690F83D001F4616460D4620284CD1C2
:10269000C5B1BEB194F83C00012846D0012084F8B1
:1026A0003C004FF00008C4F84080212084F83D0031
:1026B000FFF760F9A6848146E684A068B0F5805FE4
:1026C00003D004E00120BDE8F883206928B12E463C
:1026D0005FF0000584F83C800EE00026FAE78021D8
:1026E000204600F0AEFBA0B9AEB116F8010B216890
:1026F0004860E08C401EE084E08C4B464FF00002C6
:1027000000970028EBD14FF04001204600F099FBE4
:1027100030B10320D7E735F8020BC0F30800E6E735
:10272000202084F83D000020CDE70220CBE7704751
:10273000FEE700244FF47A761425304601F086FA3D
:1027400001F090F801F076FDB4FBF5F005FB1040C8
:1027500080B3B4FBF5F005FB104002282ED0B4FB8B
:10276000F5F005FB104004282BD0B4FBF5F005FB79
:102770001040052828D0B4FBF5F005FB10400628D2
:1027800025D0B4FBF5F005FB10400A2822D0B4FB9D
:10279000F5F005FB10400C281FD0B4FBF5F005FB4D
:1027A00010400E281CD0B4FBF5F005FB104010289B
:1027B00019D01CE0FFE71021162016E02021082088
:1027C00013E00421092010E004210A200DE0042177
:1027D0000D200AE004210E2007E02021242004E03F
:1027E0002021252001E00E21262001F08FFC641C11
:1027F000E4B2A2E7104810B50E490160082141601B
:1028000000214FF08072C0E902124FF430220261C1
:102810004FF400124261017641768176C1760177EC
:102820004177FEF7E8FC002803D0BDE81040FEF732
:1028300065B910BD00640040FC0500200F4810B5CC
:102840000D4901600821416000214FF44022816060
:10285000C0E903124FF4801242610176417681761D
:10286000C17601774177FEF7C6FC002803D0BDE8AA
:102870001040FEF743B910BD006800402406002058
:1028800010B59CB01C2216496846FDF7CFFE00210A
:10289000684601F0E7F9134C11491C2220601C31F5
:1028A00007A8FDF7C3FE002107A801F0DBF90C49DA
:1028B00060601C2238310EA8FDF7B8FE00210EA87A
:1028C00001F0D0F90649A0601C22543115A8FDF78B
:1028D000ADFE002115A801F0C5F9E0601CB010BDE7
:1028E0004454000804000020F0B587B01421684665
:1028F000FDF7F0FE25480024016841F080010160E9
:10290000016801F080010591016841F00101016059
:10291000016801F001010591016841F008010160C1
:10292000016801F008010591016841F002010160B0
:102930000068174E00F002004FF410650590002269
:1029400029463046FFF711F8124F00220F21384672
:10295000FFF70BF800950125CDE901546946304693
:102960000394FEF7FDFE2803CDE9000469463046D6
:102970000294FEF7F5FE0F200090CDE90154694660
:1029800038460394FEF7ECFE07B0F0BD3038024045
:1029900000000240000C02400C4810B50A490160DA
:1029A0004FF4E1314160002181600C22C160C0E937
:1029B00004128161C161FFF7C3FD002803D0BDE8A7
:1029C0001040FEF79BB810BD001001404C060020DF
:1029D000FEE7FEE700F0DAF800F0F6F8FEF752F84E
:1029E000012001F033F9F7E710B5502080F311888A
:1029F000BFF34F8FBFF36F8F02F056FC18B104493D
:102A00004FF080500860002080F3118810BD000056
:102A100004ED00E030B593B030216846FDF75AFE72
:102A200014210CA8FDF756FE1D480025016841F051
:102A300080510160006800F08050119019480168D1
:102A400041F4804101600068022400F4804011904C
:102A500001200090000401908001CDE9064008208B
:102A600008904001CDE9090404200B906846FFF767
:102A700049F908B172B6FEE70CA90F2081E83100D0
:102A80004FF4A0500F904FF48050109004210CA8E8
:102A9000FFF72EF8002801D072B6FEE713B030BD64
:102AA00040380240007000400248016841F4700163
:102AB0000160704788ED00E00148FFF74ABB000065
:102AC00090060020F0B50268254C264D264E274F73
:102AD000274B4FF0804CA04209D0604507D0A84258
:102AE00005D0B04203D0B84201D0984204D122F0C0
:102AF000700E4A6842EA0E02A0421BD0604519D00F
:102B0000A84217D0B04215D0B84213D0984211D085
:102B1000184DA8420ED0184DA8420BD0174DA84210
:102B200008D0174DA84205D0164DA84202D0164D28
:102B3000A84203D122F44075CA682A434D6922F0A5
:102B400080022A4302608A68C2620A688262A042E6
:102B500001D0984201D10969016301214161F0BDB1
:102B6000000001400004004000080040000C00404C
:102B70000004014000400140004401400048014081
:102B800000180040001C0040002000407CB5642478
:102B90000C48CDE9000400F164024FF4FD652346C2
:102BA0002946803800F0CCFA06486423C830CDE9C5
:102BB000000400F164022946A0F5847000F0C0FA18
:102BC0007CBD0000D845002010B5044800F0D0FBC3
:102BD0000248BDE81040403000F0CABB5845002014
:102BE00010B5806B0021C185C184FFF773FB10BD58
:102BF00001680C3151E8002F22F4907241E8002363
:102C0000002BF5D10168143151E8002F22F00102A8
:102C100041E80023002BF5D1016B012909D101689E
:102C20000C3151E8002F22F0100241E80023002B64
:102C3000F5D1202180F83E1000210163704708B5CE
:102C400090F83E10222901D0022008BD82684FF47E
:102C500080539A4201D1016921B1816A9A421BD005
:102C60004AB10AE00268816A5268C2F308020A8027
:102C7000816A891C08E0026972B10268526802F038
:102C80007F020A70816A491C8162C18D491E090454
:102C9000090CC18503D019E002685268F1E70168A8
:102CA000CA6822F02002CA600168CA6822F48072F1
:102CB000CA6001684A6922F001024A61202180F855
:102CC0003E10016B012903D0FFF7C0FC002008BDB6
:102CD0000021016301680C3151E8002F22F010023D
:102CE00041E80023002BF5D101680A68D20602D51D
:102CF0000A6849680091818DFFF7EBFAE6E700006A
:102D000070B5044600680169E26821F4405111433E
:102D100001612169A068E2690843616911430843C0
:102D20002168CA6849F20C639A430243CA6020686A
:102D30004169A26921F44071114341613149206820
:102D4000884202D03049884202D1FEF79BFF01E061
:102D5000FEF788FFE2690023192164253226B2F5C7
:102D6000004F626828D0A0FB0101930F9200FDF78D
:102D7000FFFA0146B0FBF5F06FF01802504301EB8B
:102D8000800006EB0010B0FBF5F000F0F002B1FBA4
:102D9000F5F002EB0012B1FBF5F06FF018035843A9
:102DA00001EB800006EB0010B0FBF5F000F00F0027
:102DB00021681044886070BDA0FB010192185B413E
:102DC000FDF7D6FA0146B0FBF5F00201B1FBF5F0D4
:102DD0006FF01803584301EB800006EBC000B0FB16
:102DE000F5F000F0F80002EB4002B1FBF5F05843BB
:102DF00001EB800006EBC000B0FBF5F000F007002F
:102E0000D6E7000000100140001401408162828575
:102E1000C28500210164222280F83E2080F83C1007
:102E20000168CA6842F48072CA6001684A6942F067
:102E300001024A610068C16841F02001C1600020C0
:102E400070472DE9F041984617460E460446069D08
:102E500027E0681C25D02DB1FEF78CFDA0EB080003
:102E6000A8421ED920680C3050E8001F21F4D07110
:102E700040E80012002AF5D12068143050E8001F05
:102E800021F0010140E80012002AF5D1202084F849
:102E90003D0084F83E00002084F83C000320BDE89B
:102EA000F0812068006836EA000004D00020B842B3
:102EB000CFD00020F3E70120F9E700000148FFF739
:102EC0000BBA00004C060020FEE7000001B50748E1
:102ED00000680168C9430906FBD44FF6FF7301225D
:102EE00069460248FFF7CAFB08BD00004C060020F7
:102EF00070B50D4606460024305DFFF7E7FF641C01
:102F0000AC42F9D370BD70B505460024285DFFF7CB
:102F1000DDFF641C285D0028F8D170BD0907090E8B
:102F2000002804DB00F1E02080F80014704700F076
:102F30000F0000F1E02080F8141D7047F0B5104834
:102F40000021104E4278077817E001EB810306EB71
:102F500083050020AC18531E04F8010C09E000BFE3
:102F600015F800E014F801CC401CF44404F801CC3E
:102F7000C0B29842F4DB491CC9B2B942E5D3F0BDF6
:102F8000520100200804002010B500210648FDF77A
:102F900011FD06A10648FDF7F2FA0349C91E00B16A
:102FA0000120087010BD00006F00002035000000F7
:102FB000B0440020054A292000219180044A401E87
:102FC0000004000C1154FAD1704700005201002097
:102FD000B044002010B550210448FDF759FB0348C8
:102FE0005021BDE810405030FDF752BBE8430020AF
:102FF00010B50C490C4A002008C942F82030401C8A
:10300000C0B21428F8D35088A0F57F41FF3907D10A
:1030100050210548FDF73CFBBDE8104001F09CB88D
:1030200010BD000000000E08E843002070B50E49F6
:103030000E4B0020487003F1A00500BF33F820209C
:10304000012A0BD103EB800254884A78260A05F83E
:10305000126005EB4206521C74704A70401CC0B2EC
:103060001428EBD370BD000020010020E8430020AD
:1030700070B50E490E4B0020487003F1500500BF9B
:1030800033F82020012A0BD103EB800254884A78C0
:10309000260A05F8126005EB4206521C74704A704D
:1030A000401CC0B21428EBD370BD000020010020EA
:1030B0003844002010B50D4C00224FF4006120462A
:1030C000FEF753FC012211022046FEF74EFC0122BE
:1030D00007490848FFF7A4FA0A20FEF785FA0448D2
:1030E0000021BDE810401330FDF764BC0000024031
:1030F0006D0000204C0600200249898801800248AA
:103100007047000052010020B04400200B4901200C
:103110004FF4A562086140F2231008600020886027
:10312000C860183188600A60C860062008610348DA
:103130004FF4C8713030FDF7CDBA0000D80300203D
:103140002DE9F0470E46DDE908891D46174604467D
:103150004021FDF7BFFA002084F83C0084F82000ED
:10316000C4E900672581C4F82880A4F82C90BDE844
:10317000F08700002DE9FC470446901E15460728FD
:1031800028D26846FDF70DFAC5F108010DEB0500E0
:10319000FDF77EFA9DF800006FF0050102096FF05F
:1031A000060A4FF002074FF0000615D06FF007092E
:1031B0004FF06408012A2CD0022A53D0032A09D1E7
:1031C00094F82000012805D1032D7ED258A000BF1D
:1031D00000F006FBBDE8FC8794F83C20012A0AD0E9
:1031E000A6636946020704D000F00F026D1EAA42D2
:1031F00003DD57A0ECE7A163F3E7491CA06AFDF7E4
:10320000D0F99DF8000000F00F01E18584F83C70D2
:10321000E0E794F83C0001281AD0A6632A466946E4
:10322000204600F04DF9C11C14D00028D2D1012055
:1032300084F83C000023424684F833801946204637
:1032400000F0F1F900F0CDFA00F5FA706063C1E723
:10325000A163E3E70023C4F8389084F83C601A4681
:1032600002212DE094F83C00012801D0A163B1E7D0
:103270002A466946204600F0E1F8011D0DD00028DD
:10328000A8D100F0AEFA00F5FA706063208EE18DEF
:10329000884208D384F83C709CE76FF00300A06379
:1032A00084F83C6096E794F83300401E10F0FF006D
:1032B00084F833008ED10023424684F833801946C7
:1032C000204600F0B0F985E7FFE700F08AFA00F544
:1032D000FA70A0619DF8001001F00F00022807D0DD
:1032E000012808D0080793D19DF8010070B10FE0C4
:1032F000C4F81C9007E0E07C401CC0B2E0740128D8
:1033000086D9C4F81CA084F8207063E74FF6FF70DC
:1033100020829DF80200A0F1F101082901D80120C6
:1033200002E07F2800D90020A074E67452E7000074
:10333000466C6F7720636F6E74726F6C206672617B
:103340006D6520746F6F2073686F72742E000000BB
:1033500053696E676C652D6672616D65206C656E74
:1033600067746820746F6F20736D616C6C2E000041
:103370002DE9F041044690F82000002501281DD1D8
:10338000208A4FF6FF760227B04200D060B1A07CC1
:1033900020B100F026FA6169081A05D5204600F030
:1033A0000BF9D8B184F8207000F01BFAA169081A53
:1033B00004D56FF00100E06184F8207094F83C00BF
:1033C000012809D100F00DFA616B081A04D56FF0DD
:1033D0000200A06384F83C50BDE8F081208AB0422E
:1033E00001D0401E208200F0FCF900F5FA70A061C7
:1033F00000F0F7F9A17C08446061A08961898842E6
:10340000D2D384F82050CFE770B5054690F83C0041
:103410001E460B46022802D06FF0040070BDEC8DF2
:10342000944200D9144622461846A96AFDF7B9F815
:103430003470002085F83C0070BD000070B5044673
:103440000B7890F8320003F00F03984202D06FF02F
:10345000030070BDE38D208E1B1A9DB2072D00D98D
:103460000725521E954205DD0DA000F0B9F96FF059
:10347000060070BDA26A491C10442A46FDF791F867
:10348000208E2844208694F83200401CC0B284F874
:1034900032000F2802D9002084F83200002070BDCD
:1034A000436F6E7365637574697665206672616DCE
:1034B0006520746F6F2073686F72742E00000000B7
:1034C00010B56FF00604082A01D013A008E00A78AE
:1034D0004B7802F00F0203EB0222072A04D819A04E
:1034E00000F07EF9204610BD838D934205D220A0C6
:1034F00000F076F96FF0020010BD836AD1F8024047
:103500001C60C9889980C28506210186012180F846
:103510003210002010BD000046697273742066727C
:10352000616D652073686F756C642062652038205A
:10353000627974657320696E206C656E6774682E9D
:103540000000000053686F756C64206E6F74207506
:103550007365206D756C7469706C65206672616D41
:1035600065207472616E736D697373696F6E2E007E
:103570004D756C74692D6672616D6520726573702E
:103580006F6E736520746F6F206C61726765206663
:103590006F7220726563656976696E672062756611
:1035A0006665722E0000000030B4134604680A46B7
:1035B000214630BC00F054B87CB541890446072947
:1035C00001D8FCF7D1FF9DF80000A27B20F0F000AD
:1035D000203062F303008DF80000A089091A8DB233
:1035E000072D00D9072561686E4601442A46701CE4
:1035F000FCF7D7FF7019C5F10701401CFDF748F82B
:1036000008226946206800F0EFF800280AD1A18955
:103610002944A181A17B491CC9B2A1730F2901D9F9
:103620000021A1737CBD1CB59DF8004024F0F0047E
:10363000303461F303048DF800408DF801207F2BB6
:1036400000D97F238DF802300021CDF803108DF8CA
:10365000071000680822694600F0C6F81CBD00008B
:10366000F0B51F46A1B013460D4604000FD02089C7
:10367000B84212D23C4800F0B3F823893A463BA145
:103680006846FCF7EDFE6FF0020021B0F0BD43A0EC
:1036900000F0A6F84FF0FF30F7E794F8200001287B
:1036A0000ED067810026A6813A4619466068FCF76D
:1036B00078FF6289082A24D2072A07D9FCF754FF29
:1036C0003AA000F08DF86FF00100DEE79DF80000F1
:1036D00020F0F00062F303008DF800000DF101000E
:1036E0006168FCF75EFF60890DF10102C0F107011E
:1036F0001044FCF7CDFF08226946284600F074F814
:1037000019E09DF800108DF80120628921F0F00188
:10371000120A103162F303018DF800106168284627
:103720000A68CDF802208988ADF80610082269469B
:1037300000F05AF810B105462846A6E7A1890127EE
:10374000891DA181A7732682A6740546E67400F040
:1037500048F8606100F045F800F5FA70C4E9060623
:1037600084F82070E8E70000F454000841747465A0
:103770006D7074656420746F2073656E64202564B9
:103780002062797465733B206D61782073697A6576
:10379000206973202564210A000000004C696E6BCB
:1037A000206973206E756C6C2100000041626F729D
:1037B000742070726576696F7573206D65737361BF
:1037C00067652C207472616E736D697373696F6EB7
:1037D00020696E2070726F67726573732E0A000025
:1037E0007047FEF7C7B80000074B10B518600020FF
:1037F0009860C3E9030205480A461946D0E9033038
:10380000FDF79CFA002010BD684700205C010020F5
:10381000FEF7BEF8FFF7FEF8FFF766F8FEF7EAFFDF
:10382000FFF70CF8FFF7B8F8FFF7E2FBFFF7FEFB36
:103830000748084900780870FEF7DCFFFEF7FEFF36
:10384000FDF788F8FFF71CF800F007FAFEE7000024
:10385000210100200000002001460020842900D022
:10386000C81C704770B5FFF7E1FB144C144D20786D
:103870006978884203D000F06FFC68782070104CA3
:103880005520E41C2070FFF7F3FB6878AA2600B1EE
:103890002670FFF7CBFB687800B12670084A094B09
:1038A000D21C09490948FDF749FABDE87040044AAD
:1038B000044BD21C04490648FDF740BA0000002022
:1038C0002001002060000020D8030020FC0500201B
:1038D000240600202DE9F04F00248DB089460A7897
:1038E0000546A2462146EE4604E0465C0EF801601D
:1038F000491CC9B29142F8D30021884605F80180DD
:10390000491CC9B240466429F8D39DF8001001272C
:10391000403129559DF80010934EDFF850B2641CD9
:1039200001290AD0022935D0032975D0042974D081
:10393000072973D0092972D0F0E0022AFCD39DF840
:10394000010020B10C280DD0112869D119E005F82B
:103950000480641C102105F80480641C404629552D
:10396000802107E00C202855B0884FF6FF7101EA4E
:103970008000010A641C2955641C2855B770641C1A
:10398000EAE01120285530786421C0EB0020B0FB1C
:10399000F1F0F1E7032A74D30021521E96F802C019
:1039A00002EBD2730EE000BF0EEB4102527892B1EF
:1039B000022A24D00C2A39D0112A3FD04FF0010A14
:1039C000491CC9B2B1EB630FEEDB86F802C0BAF155
:1039D000010F64D0B3E02855641CE2B24024A8541F
:1039E000521CD2B2AC54521CD2B21024AC54521C51
:1039F000D2B28024AC54521CD2B2A85411E002229C
:103A00002A55641CE2B20A24A854521CD2B2AC5407
:103A1000521CD2B2FA2419E01AE01EE020E035E090
:103A20003DE0521CD4B24FF0010CC9E70C222A55DC
:103A3000641CE2B2A854521CD2B203E011222A55EF
:103A4000641CE2B2A854521CD2B2C824AC54E8E7B9
:103A5000FFF7ECFA06E0B7707EE0FFF7BBFAFAE793
:103A6000FFF706FB707868B128557078641C420037
:103A700028193F49FCF795FD707804EB4000C4B26B
:103A8000E9E74BE005F80480641CE4E7022A45D32B
:103A90009DF8010088B102281BD00A282CD07F2075
:103AA00028709DF8000068707E20A870B7709BF8A1
:103AB00000000324012846D04EE005F80480641C71
:103AC00040212955641C40462955641C05F8048092
:103AD00052E702202855641C234A2F5500200C323F
:103AE000641C115C2955641C401C0121C0B2E4B265
:103AF0001128F6D3B1702FE00A202855641C1A4A09
:103B00002F5500201D32641C115C2955641C401C7B
:103B10000121C0B2E4B21428F6D3EBE77F2028706D
:103B20009DF8000068701120A870B7709BF8000025
:103B30000324012803D18BF8008086F80280B07836
:103B4000012809D003E08BF8008086F8028089F80C
:103B500000800DB0BDE8F08F89F800408021054855
:103B6000FDF7FBFEF5E70000200100205E010020CC
:103B7000884400200004024010B50C46B0F5C37F15
:103B80004BD0B0F5C27F47D150212E48FCF780FDC5
:103B9000E0784FF0010281062A48A0F1500305D5D4
:103BA0001A804FF49071598002804180E1780906B3
:103BB00005D59A8040F62B21D9808280C180A178DA
:103BC000C90605D51A8140F6FB2159810281418140
:103BD000A178490705D59A8140F6FA21D9818281D9
:103BE000C181A178C90705D01A8240F63F215982C8
:103BF00002824182A178490605D59A8240F61B21AE
:103C0000D9828282C182A178090705D51A8340F63C
:103C10003C2159830283418310BD20786178E2788A
:103C200000EB0120A178090401EB02610844064978
:103C3000B0F1004F02D36FF00042801A88802079E3
:103C4000087010BD384400202001002010B500B9D4
:103C5000012001F0C5F9002010BD10B501F0E6F912
:103C6000002010BD7FB50D4604464169B0F908003B
:103C700081B1A16971B1FFF7EFFDD4E905128DE8BB
:103C80000700D4E900102B46226901F0E2FA039004
:103C900004B070BDFFF7E0FD03A9CDE90001208A63
:103CA0002B4682B2D4E9001001F0A6FA012801D017
:103CB0000020EDE70398EBE72DE9F041184C0F46A3
:103CC0000546E6682068001D01F0C2F838B9206892
:103CD00090F82C1001208840216981432161681CE3
:103CE00007D137B12168BDE8F0410E48091D01F048
:103CF000F3B820683544B5424560216805D2A06B11
:103D0000BDE8F041091D01F0CFB8606B091D01F05D
:103D1000CBF8A06A854200D2A562BDE8F081000020
:103D2000B8000020D40700202DE9F041054601F03D
:103D3000DFF82E4CA068401CA06020682C4F10B10A
:103D4000606940B32DE02560A068012829D10026D4
:103D500006EB860007EB800001F098F8761C072E32
:103D6000F6D323488C3001F091F82148A03001F0BF
:103D70008DF81F48B43001F089F81D48C83001F0B3
:103D800085F81B48DC3001F081F819488C306063FD
:103D90001430A06305E02068E96AC06A884200D850
:103DA0002560606A401C6062E96A012022698840DF
:103DB0001043206101EB810007EB8000291D01F019
:103DC0008BF801F0B5F8606900280CD02068E96A2A
:103DD000C06A884207D207494FF080500860BFF39D
:103DE0004F8FBFF36F8FBDE8F0810000B800002057
:103DF000F806002004ED00E010B5044690F85100EC
:103E000058B101280CD002280FD0502080F311881F
:103E1000BFF34F8FBFF36F8FFEE7206B01F09CF86D
:103E20002046BDE8104001F097B810BD10484FF48F
:103E30007051420706D0C01D0D4920F00700411AFD
:103E4000C1F570510B4A00230144C2E9000308394F
:103E5000183A21F0070111604B600B600B1AC0E9A2
:103E6000001393604FF000405360506170470000B2
:103E7000E80700200C010020144E154CA6F1C807DD
:103E80004FF08058DFF84C9012E000BF01F030F89E
:103E9000F068C568281D00F0DBFFA068401EA06028
:103EA0006068401E606001F043F82846FFF7A4FFF9
:103EB00060680028EAD138680128F9D9C9F800807B
:103EC000BFF34F8FBFF36F8FF2E70000C0070020F2
:103ED000B800002004ED00E02DE9F0479A46DDE946
:103EE000098481466FF00303206B03EB82021044C8
:103EF000089E20F00707780707D0502080F311882C
:103F0000BFF34F8FBFF36F8FFEE7002561B1002035
:103F100023180A5C83F834200A5C12B1401C102874
:103F2000F6D384F8435001E084F83450072E00D3D0
:103F30000626E662C4E91165201D00F0B2FF04F117
:103F4000180000F0AEFF2461C6F107006462A061B2
:103F5000E56484F8505052464946384600F0C0F8AF
:103F60002060B8F1000F01D0C8F80040BDE8F0872C
:103F700030B5114900E011460A688242FBD34B6814
:103F80005C18844203D1406818444860084643687E
:103F90001C18944209D1084C183C2468A24209D04C
:103FA00052681A4442600A6812680260814200D076
:103FB000086030BD0460F9E70C0100200648416B41
:103FC000096829B1416BC968C9684968816270474D
:103FD0004FF0FF31FAE70000B800002008484068C1
:103FE000401C4FF0500080F3118804D0BFF34F8F76
:103FF000BFF36F8FFEE7BFF34F8FBFF36F8FFEE707
:10400000140100202DE9F0410546002701F044F895
:10401000324E306808B9FFF709FF706905424ED18A
:10402000C5B3083568070ED005F00700C0F10800D9
:104030000544680707D0502080F31188BFF34F8FE5
:10404000BFF36F8FFEE72DB37068854237D82348E2
:10405000183001460C6801E020460C466168A94210
:1040600002D221680029F7D131688C4227D0076835
:104070002168016060680837411B10290FD9601959
:10408000420708D0502080F31188BFF34F8FBFF351
:104090006F8FFEE713E041606560FFF769FF6168BD
:1040A0007068401A7060B268904200D2B060706967
:1040B00001430020C4E90001F068401CF06001F0F9
:1040C00059F9780707D0502080F31188BFF34F8F3C
:1040D000BFF36F8FFEE73846BDE8F081F4000020A3
:1040E00010B5031F4FF080741C601B1F21F00101ED
:1040F0001960191F044B0B6014390A60091F6FF017
:10410000020244380A6010BDDD3F0008104B10B5B4
:10411000D8700022197110465A71995CC0B2521CB5
:104120000844D2B25871052AF7D3094B09491B1F1D
:104130001A1D01F50370FCF701FE054B05491B1F15
:10414000BDE810401A1D01F50D70FCF7F7BD000029
:1041500064000020F003002070B586B0104DFDF71C
:10416000E9FA01200B21CDE9010103900020009024
:10417000022004900B496846FDF748FA0A4E0024D5
:10418000002356F8242029460220FDF795FA641CE6
:10419000E4B22D1D142CF3D3FDF784FA06B070BDE4
:1041A00000000E0828010020E8430020094810B54F
:1041B000007800280DD0084CA078002809D020787D
:1041C000012806D100F00AF8A078002801D0401E8E
:1041D000A07010BD1A0000206C00002070B51248BD
:1041E000124C007810B1012804D007E0082020709C
:1041F000142002E00F2020700E206070FEF79EFE5B
:1042000000250B4E0CE000BF05EB850006EB80009F
:104210006178FCF703FC1420FDF7E6F96D1CEDB2A4
:1042200020788542F0D370BD140000205201002098
:1042300008040020184810B50078184C01280CD04C
:10424000012202212046FDF790FB1548007848B175
:1042500008212046FDF781FB09E001211148FDF707
:104260007CFBF2E7012208212046FDF77EFB0E4988
:104270000A7832B1521E0A7004212046FDF76DFB08
:1042800004E0012204212046FDF76FFB2046BDE833
:1042900010400221FDF761BB6C000020000C0240C1
:1042A0001A000020000402405D0100202DE9F04FBB
:1042B000FB49DFF8E493F74E0C888EB0B768D9F865
:1042C0000030D9F8042044F001000D9044F00200C1
:1042D0000C9044F004000B9044F008000A9044F065
:1042E0001000099044F02000089044F0400007902E
:1042F00044F08000069044F48070059044F400700F
:10430000049044F48060039044F40060029044F40C
:104310008050DFF888B3019044F400500BF1800521
:10432000009044F4804EA5F15000E7B37468DD4E70
:10433000DFF87483B44228D0DC4EB44225D0DC4E82
:10434000B44222D0DB4EB4421FD0DB4EB4421CD06C
:10435000DA4EB44219D0444517D0D94EB44214D0E5
:10436000D84EB44211D0D84EB4420ED0D74EB4423B
:104370000BD0D74EB44208D0D64EB44205D0D64E5C
:10438000B44202D0D54EB4427ED1D54F0126A4EB23
:10439000080C3E7018274FF0D0094FF0F30A44453F
:1043A00073D073DC00E010E0DFF820C3A4EB0C084E
:1043B00064456CD06CDCCB4D64196AD0CA4D64196D
:1043C00068D0B4F5803FDFD144E1D6F80080A8F290
:1043D0008116A8F5B07C062E02D9BCF1250F53D862
:1043E000BF4F0026B8F5B47F3E700670067580F8A2
:1043F000286080F83C6080F8506080F8646080F845
:10440000786080F88C60A34E367871D008DCBCF1FF
:10441000080F39D2DFE80CF050565C646D757F856B
:10442000B8F5C27F75D00BDCA8F58078B8F16908C3
:1044300070D0B8F1180F0FD0B8F11A0FA4D136E030
:10444000A8F58078B8F1850871D0B8F1010F6FD068
:10445000B8F1020F98D1B5E046703A7989F800209A
:10446000FA7889F80120FA7989F802207A7989F8AE
:104470000320B7F840204846130A89F8043089F829
:104480000520B7F8442006E0E3E051E1ACE086E126
:10449000A0E0C2E0CFE0130A89F8063089F80720CF
:1044A0005A46036842F8323F40685060C1E0867265
:1044B000584640F83B3FC9E060244475584640F8F0
:1044C000463FD3E061248477584640F84F3FDCE014
:1044D000622480F82940584640F85A3F426017E16C
:1044E000632480F83240584640F8633F42601DE143
:1044F0001FE0642480F83D40584640F86E3F42601B
:1045000022E1652480F84640584640F8773F4260F3
:1045100027E119E012E0662480F8514045F8023F97
:104520002CE1672480F85A4045F80B3F34E13DE028
:1045300042E080F8656045F8163F3BE180F86E6028
:1045400045F81F3F6A6044E180F8796099F80200FD
:104550004B46C40100F0020604EB461400F00406CA
:1045600004EBC60400F0080604EB4604082606EA3D
:1045700050063444042606EAD0063444022606EAED
:104580005016344404EBD0109870D878C40100F071
:10459000020604EB461400F0040004EBC000D870DF
:1045A000D9F8000045F82A0F6A6020E180F882609F
:1045B00045F8333F6A602AE180F88D6045F83E3F58
:1045C0006A6034E180F8966045F8473F44F4004063
:1045D0006A603DE0B8F5803F4BD0B8F5003F57D05A
:1045E000B8F5403F35D195E0404CBCF5802F50D018
:1045F00009DCBCF5803F7BD0BCF5003F79D0BCF531
:10460000403F26D1BDE0BCF5A02F73D0BCF5C02F34
:1046100071D0BCF5E02F1CD1FBE006701024447073
:1046200026258570C47022240471584640F8353F11
:1046300042600D980CE0067547751124847580F86A
:10464000179080F818A0584640F8493F42600C98EF
:104650000880EEE000F8286F12244770847080F81C
:10466000039080F804A0584640F85D3F42600B98E4
:10467000EEE700F83C6F14244770847080F80390D4
:1046800080F804A0584640F8713F42600A98DFE77E
:1046900032E092E0D844002070010020D8030020CE
:1046A0005801002022102610F3D01718F3D011184B
:1046B000F3D01218F3D01418F3D01518F3D016183D
:1046C000F3D01818F3D01918F3D01A18F3D0131820
:1046D000F3D01B18F3D01C18F3D01D18F3D01E18FC
:1046E00014000020DEEFD9EF2F3F14F8D80400208B
:1046F0002CE038E06FE07CE000F8506F1524477044
:10470000847080F8039080F804A045F8053F6A6043
:1047100009989DE700F8646F16244770847080F84C
:10472000039080F804A045F8193F6A6008988FE765
:1047300000F8786F17244770847080F8039080F831
:1047400004A045F82D3F6A60079881E700F88C6F58
:104750004770877080F8039080F804A045F8413FC7
:104760006A60069874E700F8A06F19244770847097
:1047700080F8039080F804A045F8553F6A600598DA
:1047800066E700F8B46F1A244770847080F80390CD
:1047900080F804A045F8693F6A60049858E700F87B
:1047A000C86F13244770847080F8039080F804A0C9
:1047B00045F87D3F6A6003984AE700F8DC6F1B25E7
:1047C0004770857080F8039080F804A044F8113F8A
:1047D000626002983CE700F8F06F1C254770857016
:1047E00080F8039080F804A044F8253F62600198A7
:1047F0002EE780F8046180F805711D2580F80651C8
:1048000080F8079180F808A144F8393F6260009869
:104810001EE780F8186180F819711E2580F81A517A
:1048200080F81B9180F81CA144F84D3F6260A1F80C
:1048300000E00888002804D0034905208871034956
:1048400008700EB0BDE8F08F140000206E0000204C
:10485000F0B587480022812100F8142B00F8142BB2
:1048600000F8142B00F8142B00F83C2B00F8282C2F
:1048700000F8142C00F88B2901707E490B794370E5
:10488000CB78837011F8073FC37011F9023C0371B4
:10489000B1F83940250A00F8055F4470B1F83D4091
:1048A000250A8570C470832404716024C473B1F830
:1048B0000D40250A05744474B1F80F40250A85742B
:1048C000C474B1F81140250A05754475B1F8134058
:1048D000250A8575C47561240476B1F81540250A4A
:1048E00045768476B1F81740250AC5760477B1F885
:1048F0001940250A45778477B1F81B40250AC5770A
:1049000080F82040622480F82340B1F81D40250A39
:1049100080F8245080F82540B1F81F40250A80F81F
:10492000265080F82740B1F82140250A80F8285009
:1049300080F82940B1F82340250A80F82A5080F8F1
:104940002B40632480F82C40B1F82540250A80F8DC
:104950002D5080F82E40B1F82740250A80F82F50BE
:1049600080F83040B1F82940250A80F8315080F8AD
:104970003240B1F82B40250A80F8335080F834409B
:10498000642480F83740B1F82D40250A80F838506B
:1049900080F83940B1F82F40250A80F83A5080F865
:1049A0003B40B1F83140250A80F83C5080F83D404A
:1049B000B1F83340250A80F83E5080F83F40652426
:1049C00080F840401C0A80F8414080F8423080F86E
:1049D000434080F8443080F8454080F8463080F805
:1049E000474080F84830662580F84B50B1F8355084
:1049F0002E0A80F84C6080F84D50B1F83760370AC5
:104A000080F84E7080F84F6000F8502FAD1B427058
:104A10002E0A8670C5706725057144718371C47153
:104A2000037242728272C27202736823C37311F8F6
:104A3000034F4B78897804EB830404EB011101EBFD
:104A40008311017442748274C27402754275827556
:104A500000F8172F69214170842101738521417568
:104A6000862180F82010872180F82910F0BD0000F1
:104A700008040020140000202DE9F0410E46077CB8
:104A8000114C0168A1F5A060A170443814D13078B0
:104A90000E4D472802D1707816280FD0607850212B
:104AA000B1EBC00F08D905EBC0003A463146FBF721
:104AB00078FD6078401C6070BDE8F08100F008F877
:104AC000002060702846F0E71400002098050020C0
:104AD0002DE9F04FDB4B85B01878472878D158780E
:104AE000162875D1DD78D848082D4AD01946642794
:104AF0008A794E791402CA7904EB0244A119092D6E
:104B000042D019460A2D8C7991F805C00CEB042C83
:104B10000C7A3DD08A79CF791202497902EB0742AB
:104B20001144C9B20D2D41D00E2D41D01946162D7C
:104B30004A7A3FD04C7B8A7B262D04EB0222CC7B29
:104B4000097C92B204EB012189B25AD09C795E793A
:104B5000242D06EB04241FFA84F81C7ADE7906EB78
:104B600004241FFA84FC9C7A5E7A06EB0424DE7A25
:104B70001B7BA4B206EB03239BB249D0252D7CD02E
:104B800050E1597941714DE1B1FBF7F1016449E11F
:104B9000110401EB04616144B1F1004F02D36FF0E5
:104BA0007F42511A91FBF7F141643BE1C17039E159
:104BB000017137E133064FF0010100D5C17175066F
:104BC0004FF0000300D5C371A50602D5817301E043
:104BD00035E18373640701D5C17300E0C3735307E4
:104BE0004FF0020101D5C1721CE1130701D54173D9
:104BF00018E1D30601D5817214E19206C0D5017384
:104C000010E102824182597C0172997C417209E172
:104C1000A0F81480A0F816C0CDF800C0CDF804C0EC
:104C2000048343838283874D864EC1836D7CB67C2B
:104C300005EB0625ADB205840495824D814EED7CD1
:104C4000367D05EB0625ADB2458403957D4D7D4E41
:104C50006D7DB67D05EB0625ADB285840295794D57
:104C6000784EED7D367E05EB0625ADB2C584AE46A9
:104C7000744D744E6D7EB67E00E0CDE005EB0625EA
:104C8000ADB20585AB466F4D6E4E6E4FED7E367FF5
:104C9000DFF8B0C105EB0625ADB24585AA46694DE2
:104CA000684E6D7FB67F05EB0625ADB28585A946BA
:104CB000644D644EED7F96F8206005EB0625AEB29C
:104CC000604DC68597F8227095F8215005EB0725B1
:104CD000ADB25C4F05869CF824C097F8237007EBB3
:104CE0000C27BFB24786A0F83C80A0F83E80DDF8D4
:104CF00004C0C44503D9DDF800C0A0F83CC0B0F83A
:104D00003CC0644500D98487B0F83CC0634500D9F5
:104D10008387B0F83CC0624500D98287B0F83CC0B8
:104D2000614500D98187B0F83C80DDF810C0C445EA
:104D300001D9A0F83CC0B0F83C80DDF80CC0C445F7
:104D400001D9A0F83CC0B0F83C80DDF808C0C445EB
:104D500001D9A0F83CC0B0F83C80C64501D9A0F804
:104D60003CE0B0F83C80C34501D9A0F83CB0B0F8B5
:104D70003C80C24501D9A0F83CA0B0F83C80C145B8
:104D800001D9A0F83C90B0F83CC0664500D98687B0
:104D9000B0F83CC0654500D98587B0F83CC0674590
:104DA00000D98787B0F83CC0DDF80080E04501D22B
:104DB000A0F83E80644500D2C487634500D2C38713
:104DC000624500D2C287614500D2C187049961451E
:104DD00000D2C1870399614500D2C187029961451C
:104DE00000D2C187E64501D2A0F83EE0E34501D2FA
:104DF000A0F83EB0E24501D2A0F83EA0E14501D2C4
:104E0000A0F83E90664500D2C687654500D2C587AA
:104E1000674507D2C78705E0A0F83480A0F836C000
:104E20000487438705218171084801706421054882
:104E3000FBF750FC05B0BDE8F04FFFF709BD05B02A
:104E4000BDE8F08F98050020140000206E000020BF
:104E5000D0E9013201699A60D0E901235A604A68B9
:104E6000824201D182684A60002202610868401EC5
:104E70000860086870470000034B036003F15400AA
:104E800008608020106070478401002000F1080154
:104E90004FF0FF32C0E90112C160016100210160E1
:104EA000704700210161704730B50B685A1C02D071
:104EB00000F1080202E0026904E022465468256815
:104EC0009D42FAD953684B6099608A6051600861CD
:104ED0000168491C016030BD42684A6093688B607C
:104EE00093685960916008610168491C01607047CE
:104EF000502080F31188BFF34F8FBFF36F8F0A49A3
:104F00004868401C486001280CD10848006810F02F
:104F1000FF0F07D0502080F31188BFF34F8FBFF3EE
:104F20006F8FFEE7704700001401002004ED00E0E1
:104F30000849486828B1401E486001D180F31188B3
:104F40007047502080F31188BFF34F8FBFF36F8FEE
:104F5000FEE700001401002070B500282AD0164D8D
:104F6000A0F1080460686969084207D1502080F305
:104F70001188BFF34F8FBFF36F8FFEE722683AB1FE
:104F8000502080F31188BFF34F8FBFF36F8FFEE780
:104F90008843606000F080F8606869680844686071
:104FA0002046FEF7E5FF2869401C2861BDE87040F7
:104FB00000F0E0B970BD0000F40000204FF0E020E8
:104FC00000210161816105494FF47A720968B1FBE2
:104FD000F2F1491E4161072101617047B4000020D0
:104FE00010B5020014D00F48006B38B1502080F388
:104FF0001188BFF34F8FBFF36F8FFEE700F04CF8BF
:1050000000211046FEF758FE00F0B4F9002807D141
:1050100005494FF080500860BFF34F8FBFF36F8F8B
:1050200010BD0000B800002004ED00E010B586B00F
:105030000024039405AA04A903A80494FFF71CFF05
:10504000DDE903010094CDE9011000230EA1104811
:10505000059A00F0FEF80F490028C86211D05020D0
:1050600080F31188BFF34F8FBFF36F8F4FF0FF3086
:10507000886201204861CC6006B0BDE8104000F0B5
:1050800041B806B010BD000049444C450000000086
:10509000793E0008B80000200248016B491C0163FA
:1050A00070470000B80000201448016B11B10121C5
:1050B000C16170470021C1610169B1FA81F1C1F19B
:1050C0001F0101EB81020E4951F822306BB101EB57
:1050D000820101F108034A6852684A609A4201D18C
:1050E00052684A60D16801607047502080F311888F
:1050F000BFF34F8FBFF36F8FFEE70000B8000020B3
:10510000F80600201CB537480168374A914207D19C
:10511000502080F31188BFF34F8FBFF36F8FFEE7EE
:1051200000683149491E884207D1502080F3118818
:10513000BFF34F8FBFF36F8FFEE72C4908780190C4
:10514000FF20087008788DF800009DF800009DF899
:10515000002000F0F000904207D0502080F311882A
:10516000BFF34F8FBFF36F8FFEE79DF80000204C19
:1051700000F0500020700720A06005E09DF800209E
:1051800052008DF80020401E9DF800201206F5D434
:10519000A060032807D0502080F31188BFF34F8F01
:1051A000BFF36F8FFEE74FF44070A0600198087066
:1051B0000C482030016841F470010160016841F041
:1051C00070410160FFF7FAFE00206060FBF774F8A1
:1051D0000848016841F040410160FBF759F80020A0
:1051E0001CBD000000ED00E071C20F4100E400E0D2
:1051F0001401002034EF00E02DE9FF5F8346DDE974
:105200000E87994616468A469000FEF7FBFE05007B
:105210001CD05420FEF7F6FE040014D000202563B5
:1052200084F85100CDE90240CDE900874B46324673
:1052300051465846FEF750FE2046FEF775FD012008
:1052400004B0BDE8F09F2846FFF786FE4FF0FF3020
:10525000F6E7F0B585B0DDE90B640A9DA6B1DCB1D7
:10526000542700972663022684F85160002604AF75
:10527000CDE90246CDE90057FEF72EFE2046FEF7A7
:1052800053FD049805B0F0BD502080F31188BFF3A2
:105290004F8FBFF36F8FFEE7502080F31188BFF36D
:1052A0004F8FBFF36F8FFEE72DE9F0412F4C0026A3
:1052B000206B28B1A069401CA0613046BDE8F08198
:1052C000E5686D1CE56013D1606B006838B1502053
:1052D00080F31188BFF34F8FBFF36F8FFEE7606BD2
:1052E000A16B6163A063206A401C2062FEF766FE2A
:1052F000A06ADFF87C80854209D3606B0068A0B1AA
:10530000606BC068C7687868854211D2A062206867
:10531000C06A00EB800158F82100012800D901265D
:10532000E0690028C9D00126C7E74FF0FF30EDE75C
:10533000381DFFF78DFDB86A18B107F11800FFF7A7
:1053400087FDF96A0120226988401043206101EB42
:10535000810108EB8100391DFFF7BEFDF86A216865
:10536000C96A8842C9D30126C7E70000B8000020F7
:10537000F80600202DE9F0472C4D00242746286B25
:1053800038B1FFF7B5FD286B401E2863286B40B18C
:1053900046E0502080F31188BFF34F8FBFF36F8F2B
:1053A000FEE7A968224E0120D1B3A6F1B4098046D8
:1053B0003068E8B1F068C46804F11800FFF748FDF0
:1053C000201DFFF745FDE06A2A6908FA00F1114344
:1053D000296100EB800109EB8100211DFFF77CFDB5
:1053E000E06A2968C96A8842E2D3C5F81C80DFE711
:1053F0000CB1FEF7E3FDAC6944B14646FFF754FF3C
:1054000000B1EE61641EF9D10020A861E86938B1ED
:105410000849012738070860BFF34F8FBFF36F8F2C
:10542000FFF786FD3846BDE8F0870000B800002091
:10543000AC07002004ED00E04FF04070E1EE100AF0
:1054400070470000E8540008D5290008000000005B
:1054500000000000800000000000000000000000CC
:10546000D4540008110900080000000000000000EA
:10547000800000000000000000000000DC54000874
:10548000A9090008FDFF00000000000080000000E6
:105490000000000000000000CC5400083327000882
:1054A000FDFF000000000000800000000000000080
:1054B00000000000000000000000000001020304E2
:1054C0000607080900000000010203046C6564542B
:1054D00061736B00426C655461736B0043414E52C3
:1054E00065715461736B000064656661756C74541A
:1054F00061736B004D6573736167652073697A65CD
:1055000020746F6F206C617267652E20496E637224
:10551000656173652049534F5F54505F4D41585F3B
:105520004D4553534147455F53495A4520746F20B9
:105530007365742061206C617267657220627566A4
:105540006665720A0000000068550008000000202F
:1055500084010000C4010008E45500088401002013
:105560005C4C00002002000801646646160116101B
:10557000281141542B5359535F53544154453D3FD7
:105580000D0A1118174144565F4D46525F53504360
:105590003D343234433435354634460A1A34081C17
:1055A00031353126213201594421036124F41AAAEC
:1055B000010110101156494E3A583131564D534C95
:1055C000453358314D180E454355582D48573A56D6
:1055D000312E3353070418332E3013800102142068
:0455E000320700008E
:040000050800018965
:00000001FF
